{"abi":[{"type":"constructor","inputs":[{"name":"initialOwner","type":"address","internalType":"address"},{"name":"_feeCollector","type":"address","internalType":"address"}],"stateMutability":"nonpayable"},{"type":"function","name":"BATCH_WINDOW","inputs":[],"outputs":[{"name":"","type":"uint256","internalType":"uint256"}],"stateMutability":"view"},{"type":"function","name":"MAX_ORDERS_PER_BATCH","inputs":[],"outputs":[{"name":"","type":"uint256","internalType":"uint256"}],"stateMutability":"view"},{"type":"function","name":"MAX_SLIPPAGE_BASIS_POINTS","inputs":[],"outputs":[{"name":"","type":"uint256","internalType":"uint256"}],"stateMutability":"view"},{"type":"function","name":"MIN_ORDER_VALUE","inputs":[],"outputs":[{"name":"","type":"uint256","internalType":"uint256"}],"stateMutability":"view"},{"type":"function","name":"addTradingPair","inputs":[{"name":"tokenA","type":"address","internalType":"address"},{"name":"tokenB","type":"address","internalType":"address"}],"outputs":[],"stateMutability":"nonpayable"},{"type":"function","name":"batchCounter","inputs":[],"outputs":[{"name":"","type":"uint256","internalType":"uint256"}],"stateMutability":"view"},{"type":"function","name":"batches","inputs":[{"name":"","type":"uint256","internalType":"uint256"}],"outputs":[{"name":"batchId","type":"uint256","internalType":"uint256"},{"name":"startTime","type":"uint256","internalType":"uint256"},{"name":"endTime","type":"uint256","internalType":"uint256"},{"name":"orderCount","type":"uint256","internalType":"uint256"},{"name":"status","type":"uint8","internalType":"enum IDarkPoolEngine.BatchStatus"},{"name":"executionTime","type":"uint256","internalType":"uint256"},{"name":"executedOrders","type":"uint256","internalType":"uint256"}],"stateMutability":"view"},{"type":"function","name":"cancelOrder","inputs":[{"name":"orderId","type":"uint256","internalType":"uint256"}],"outputs":[],"stateMutability":"nonpayable"},{"type":"function","name":"currentBatchId","inputs":[],"outputs":[{"name":"","type":"uint256","internalType":"uint256"}],"stateMutability":"view"},{"type":"function","name":"currentBatchStartTime","inputs":[],"outputs":[{"name":"","type":"uint256","internalType":"uint256"}],"stateMutability":"view"},{"type":"function","name":"executeBatch","inputs":[],"outputs":[],"stateMutability":"nonpayable"},{"type":"function","name":"feeCollector","inputs":[],"outputs":[{"name":"","type":"address","internalType":"address"}],"stateMutability":"view"},{"type":"function","name":"getBatch","inputs":[{"name":"batchId","type":"uint256","internalType":"uint256"}],"outputs":[{"name":"","type":"tuple","internalType":"struct IDarkPoolEngine.BatchInfo","components":[{"name":"batchId","type":"uint256","internalType":"uint256"},{"name":"startTime","type":"uint256","internalType":"uint256"},{"name":"endTime","type":"uint256","internalType":"uint256"},{"name":"orderCount","type":"uint256","internalType":"uint256"},{"name":"status","type":"uint8","internalType":"enum IDarkPoolEngine.BatchStatus"},{"name":"executionTime","type":"uint256","internalType":"uint256"},{"name":"executedOrders","type":"uint256","internalType":"uint256"},{"name":"orderIds","type":"uint256[]","internalType":"uint256[]"}]}],"stateMutability":"view"},{"type":"function","name":"getCurrentBatchStatus","inputs":[],"outputs":[{"name":"batchId","type":"uint256","internalType":"uint256"},{"name":"timeRemaining","type":"uint256","internalType":"uint256"},{"name":"orderCount","type":"uint256","internalType":"uint256"}],"stateMutability":"view"},{"type":"function","name":"getUserOrders","inputs":[{"name":"user","type":"address","internalType":"address"}],"outputs":[{"name":"","type":"uint256[]","internalType":"uint256[]"}],"stateMutability":"view"},{"type":"function","name":"orderCounter","inputs":[],"outputs":[{"name":"","type":"uint256","internalType":"uint256"}],"stateMutability":"view"},{"type":"function","name":"orders","inputs":[{"name":"","type":"uint256","internalType":"uint256"}],"outputs":[{"name":"trader","type":"address","internalType":"address"},{"name":"tokenIn","type":"address","internalType":"address"},{"name":"tokenOut","type":"address","internalType":"address"},{"name":"encryptedAmountIn","type":"uint256","internalType":"euint64"},{"name":"encryptedMinAmountOut","type":"uint256","internalType":"euint64"},{"name":"encryptedMaxSlippage","type":"uint256","internalType":"euint64"},{"name":"deadline","type":"uint256","internalType":"uint256"},{"name":"batchId","type":"uint256","internalType":"uint256"},{"name":"status","type":"uint8","internalType":"enum IDarkPoolEngine.OrderStatus"},{"name":"submissionTime","type":"uint256","internalType":"uint256"},{"name":"executionPrice","type":"uint256","internalType":"euint64"}],"stateMutability":"view"},{"type":"function","name":"owner","inputs":[],"outputs":[{"name":"","type":"address","internalType":"address"}],"stateMutability":"view"},{"type":"function","name":"pause","inputs":[],"outputs":[],"stateMutability":"nonpayable"},{"type":"function","name":"paused","inputs":[],"outputs":[{"name":"","type":"bool","internalType":"bool"}],"stateMutability":"view"},{"type":"function","name":"protocolFeeBps","inputs":[],"outputs":[{"name":"","type":"uint256","internalType":"uint256"}],"stateMutability":"view"},{"type":"function","name":"renounceOwnership","inputs":[],"outputs":[],"stateMutability":"nonpayable"},{"type":"function","name":"submitOrder","inputs":[{"name":"tokenIn","type":"address","internalType":"address"},{"name":"tokenOut","type":"address","internalType":"address"},{"name":"encryptedAmountIn","type":"uint256","internalType":"euint64"},{"name":"encryptedMinAmountOut","type":"uint256","internalType":"euint64"},{"name":"encryptedMaxSlippage","type":"uint256","internalType":"euint64"},{"name":"deadline","type":"uint256","internalType":"uint256"}],"outputs":[{"name":"orderId","type":"uint256","internalType":"uint256"}],"stateMutability":"payable"},{"type":"function","name":"supportedPairs","inputs":[{"name":"","type":"address","internalType":"address"},{"name":"","type":"address","internalType":"address"}],"outputs":[{"name":"","type":"bool","internalType":"bool"}],"stateMutability":"view"},{"type":"function","name":"transferOwnership","inputs":[{"name":"newOwner","type":"address","internalType":"address"}],"outputs":[],"stateMutability":"nonpayable"},{"type":"function","name":"unpause","inputs":[],"outputs":[],"stateMutability":"nonpayable"},{"type":"function","name":"updateProtocolFee","inputs":[{"name":"newFeeBps","type":"uint256","internalType":"uint256"}],"outputs":[],"stateMutability":"nonpayable"},{"type":"function","name":"userOrders","inputs":[{"name":"","type":"address","internalType":"address"},{"name":"","type":"uint256","internalType":"uint256"}],"outputs":[{"name":"","type":"uint256","internalType":"uint256"}],"stateMutability":"view"},{"type":"event","name":"BatchExecuted","inputs":[{"name":"batchId","type":"uint256","indexed":true,"internalType":"uint256"},{"name":"ordersExecuted","type":"uint256","indexed":false,"internalType":"uint256"},{"name":"totalVolume","type":"uint256","indexed":false,"internalType":"uint256"},{"name":"uniformPrice","type":"uint256","indexed":false,"internalType":"uint256"}],"anonymous":false},{"type":"event","name":"OrderCancelled","inputs":[{"name":"orderId","type":"uint256","indexed":true,"internalType":"uint256"},{"name":"trader","type":"address","indexed":true,"internalType":"address"}],"anonymous":false},{"type":"event","name":"OrderSubmitted","inputs":[{"name":"orderId","type":"uint256","indexed":true,"internalType":"uint256"},{"name":"trader","type":"address","indexed":true,"internalType":"address"},{"name":"tokenIn","type":"address","indexed":true,"internalType":"address"},{"name":"tokenOut","type":"address","indexed":false,"internalType":"address"},{"name":"batchId","type":"uint256","indexed":false,"internalType":"uint256"}],"anonymous":false},{"type":"event","name":"OwnershipTransferred","inputs":[{"name":"previousOwner","type":"address","indexed":true,"internalType":"address"},{"name":"newOwner","type":"address","indexed":true,"internalType":"address"}],"anonymous":false},{"type":"event","name":"Paused","inputs":[{"name":"account","type":"address","indexed":false,"internalType":"address"}],"anonymous":false},{"type":"event","name":"ProtocolFeeUpdated","inputs":[{"name":"oldFeeBps","type":"uint256","indexed":false,"internalType":"uint256"},{"name":"newFeeBps","type":"uint256","indexed":false,"internalType":"uint256"}],"anonymous":false},{"type":"event","name":"TradingPairAdded","inputs":[{"name":"tokenA","type":"address","indexed":true,"internalType":"address"},{"name":"tokenB","type":"address","indexed":true,"internalType":"address"}],"anonymous":false},{"type":"event","name":"Unpaused","inputs":[{"name":"account","type":"address","indexed":false,"internalType":"address"}],"anonymous":false},{"type":"error","name":"BatchNotReady","inputs":[]},{"type":"error","name":"EnforcedPause","inputs":[]},{"type":"error","name":"ExecutionFailed","inputs":[]},{"type":"error","name":"ExpectedPause","inputs":[]},{"type":"error","name":"InsufficientOrderValue","inputs":[]},{"type":"error","name":"InvalidSlippage","inputs":[]},{"type":"error","name":"InvalidTrader","inputs":[]},{"type":"error","name":"OrderAlreadyExecuted","inputs":[]},{"type":"error","name":"OrderExpired","inputs":[]},{"type":"error","name":"OrderNotFound","inputs":[]},{"type":"error","name":"OwnableInvalidOwner","inputs":[{"name":"owner","type":"address","internalType":"address"}]},{"type":"error","name":"OwnableUnauthorizedAccount","inputs":[{"name":"account","type":"address","internalType":"address"}]},{"type":"error","name":"ReentrancyGuardReentrantCall","inputs":[]},{"type":"error","name":"SafeERC20FailedOperation","inputs":[{"name":"token","type":"address","internalType":"address"}]},{"type":"error","name":"SecurityZoneOutOfBounds","inputs":[{"name":"value","type":"int32","internalType":"int32"}]},{"type":"error","name":"UnsupportedTradingPair","inputs":[]}],"bytecode":{"object":"0x60806040523461028e576129936040813803918261001c81610292565b93849283398101031261028e5761003e6020610037836102b7565b92016102b7565b906001600160a01b0316801561027b575f80546001600160a01b03198116831782556001600160a01b0316907f8be0079c531659141344cd1fd0a4f28419497f9722a3daafe3b4186f6b6457e09080a360017f9b779b17422d0df92223018b32b4d1fa46e071723d6817e2486d003becc55f0055601e600a55600980546001600160a01b0319166001600160a01b03929092169190911790556006545f1981146102675760010180600655806007554260085561012c4201908142116102675760209161010a83610292565b915f83525f3681376040519061010082016001600160401b0381118382101761023f5760405280825284820142815260408301938452606083015f815260808401945f865260a08501925f845260c08601945f865260e087019889525f526002895260405f20955186555160018601555160028501555160038401556004830193519360038510156102535760079460ff801983541691161790555160058301555160068201550190519081519160018060401b03831161023f5768010000000000000000831161023f5783908254848455808510610217575b5001905f52825f20925f5b838110610205576040516126c790816102cc8239f35b825185820155918101916001016101ef565b835f5284835f2091820191015b81811061023157506101e4565b5f8155869350600101610224565b634e487b7160e01b5f52604160045260245ffd5b634e487b7160e01b5f52602160045260245ffd5b634e487b7160e01b5f52601160045260245ffd5b631e4fbdf760e01b5f525f60045260245ffd5b5f80fd5b6040519190601f01601f191682016001600160401b0381118382101761023f57604052565b51906001600160a01b038216820361028e5756fe6080806040526004361015610012575f80fd5b5f3560e01c9081630a763da11461152457508063146aea36146114eb5780631f352578146114b05780632c10617c1461109757806335659fb81461105c5780633e942a6914610fd75780633f4ba83a14610f1b5780634256dd7814610e42578063461100bb14610db1578063514fcac714610b775780635728c3f114610a6f5780635ac44282146108f85780635c975abb146108b65780635dc154ba1461087c5780635f45e2921461084257806363c69f08146107c757806368233eef1461078c578063715018a6146106f25780638456cb591461064b578063856652e9146105cb5780638da5cb5b1461057b578063a85c38ef14610449578063b32c4d8d146103b5578063b789bf521461037a578063bb28dc001461033b578063c415b95c146102ea578063f2fde38b146101fe5763f85d107c14610150575f80fd5b346101fa575f7ffffffffffffffffffffffffffffffffffffffffffffffffffffffffffffffffc3601126101fa5760085461012c81018091116101cd5742106101a55761019b6117fd565b6101a3611cad565b005b7f4e10775b000000000000000000000000000000000000000000000000000000005f5260045ffd5b7f4e487b71000000000000000000000000000000000000000000000000000000005f52601160045260245ffd5b5f80fd5b346101fa5760207ffffffffffffffffffffffffffffffffffffffffffffffffffffffffffffffffc3601126101fa5773ffffffffffffffffffffffffffffffffffffffff61024a61155c565b610252611e1e565b1680156102be5773ffffffffffffffffffffffffffffffffffffffff5f54827fffffffffffffffffffffffff00000000000000000000000000000000000000008216175f55167f8be0079c531659141344cd1fd0a4f28419497f9722a3daafe3b4186f6b6457e05f80a3005b7f1e4fbdf7000000000000000000000000000000000000000000000000000000005f525f60045260245ffd5b346101fa575f7ffffffffffffffffffffffffffffffffffffffffffffffffffffffffffffffffc3601126101fa57602073ffffffffffffffffffffffffffffffffffffffff60095416604051908152f35b346101fa575f7ffffffffffffffffffffffffffffffffffffffffffffffffffffffffffffffffc3601126101fa57602060405166038d7ea4c680008152f35b346101fa575f7ffffffffffffffffffffffffffffffffffffffffffffffffffffffffffffffffc3601126101fa576020600554604051908152f35b346101fa5760207ffffffffffffffffffffffffffffffffffffffffffffffffffffffffffffffffc3601126101fa576004355f52600260205260e060405f2080549060018101549061043d6002820154600383015460ff60048501541691600660058601549501549560405197885260208801526040870152606086015260808501906115a2565b60a083015260c0820152f35b346101fa5760207ffffffffffffffffffffffffffffffffffffffffffffffffffffffffffffffffc3601126101fa576004355f52600160205260405f2073ffffffffffffffffffffffffffffffffffffffff81541673ffffffffffffffffffffffffffffffffffffffff60018301541673ffffffffffffffffffffffffffffffffffffffff6002840154169260038101546004820154600583015460068401549160078501549360ff60088701541698600a600988015497015497604051998a5260208a015260408901526060880152608087015260a086015260c085015260e0840152600484101561054e5761016093610100840152610120830152610140820152f35b7f4e487b71000000000000000000000000000000000000000000000000000000005f52602160045260245ffd5b346101fa575f7ffffffffffffffffffffffffffffffffffffffffffffffffffffffffffffffffc3601126101fa57602073ffffffffffffffffffffffffffffffffffffffff5f5416604051908152f35b346101fa5760407ffffffffffffffffffffffffffffffffffffffffffffffffffffffffffffffffc3601126101fa5761060261155c565b73ffffffffffffffffffffffffffffffffffffffff60243591165f52600360205260405f2080548210156101fa5760209161063c916115e2565b90549060031b1c604051908152f35b346101fa575f7ffffffffffffffffffffffffffffffffffffffffffffffffffffffffffffffffc3601126101fa57610681611e1e565b6106896117c7565b740100000000000000000000000000000000000000007fffffffffffffffffffffff00ffffffffffffffffffffffffffffffffffffffff5f5416175f557f62e78cea01bee320cd4e420270b5ea74000d11b0c9f74754ebdbfc544b05a2586020604051338152a1005b346101fa575f7ffffffffffffffffffffffffffffffffffffffffffffffffffffffffffffffffc3601126101fa57610728611e1e565b5f73ffffffffffffffffffffffffffffffffffffffff81547fffffffffffffffffffffffff000000000000000000000000000000000000000081168355167f8be0079c531659141344cd1fd0a4f28419497f9722a3daafe3b4186f6b6457e08280a3005b346101fa575f7ffffffffffffffffffffffffffffffffffffffffffffffffffffffffffffffffc3601126101fa576020600654604051908152f35b346101fa5760207ffffffffffffffffffffffffffffffffffffffffffffffffffffffffffffffffc3601126101fa5773ffffffffffffffffffffffffffffffffffffffff61081361155c565b165f52600360205261083e61082a60405f20611706565b6040519182916020835260208301906115af565b0390f35b346101fa575f7ffffffffffffffffffffffffffffffffffffffffffffffffffffffffffffffffc3601126101fa57602060405161012c8152f35b346101fa575f7ffffffffffffffffffffffffffffffffffffffffffffffffffffffffffffffffc3601126101fa5760206040516103e88152f35b346101fa575f7ffffffffffffffffffffffffffffffffffffffffffffffffffffffffffffffffc3601126101fa57602060ff5f5460a01c166040519015158152f35b346101fa5760207ffffffffffffffffffffffffffffffffffffffffffffffffffffffffffffffffc3601126101fa57606060e060405161093781611651565b5f81525f60208201525f60408201525f838201525f60808201525f60a08201525f60c082015201526004355f52600260205260405f2060405161097981611651565b81548152600182015491602082019283526002810154906040830191825260038101546060840190815260ff60048301541660808501600382101561054e5786949593918152610a2260058301549160a086019283526109e7600760068601549560c0890196875201611706565b9460e0870195865260405198899860208a526101208a01985160208b01525160408a01525160608901525160808801525160a08701906115a2565b5160c08501525160e08401525190610100808401528151809152602061014084019201905f5b818110610a56575050500390f35b8251845285945060209384019390920191600101610a48565b346101fa5760407ffffffffffffffffffffffffffffffffffffffffffffffffffffffffffffffffc3601126101fa57610aa661155c565b73ffffffffffffffffffffffffffffffffffffffff80610ac461157f565b92610acd611e1e565b1691825f52600460205260405f208282165f5260205260405f2060017fffffffffffffffffffffffffffffffffffffffffffffffffffffffffffffff008254161790551690815f52600460205260405f20815f5260205260405f2060017fffffffffffffffffffffffffffffffffffffffffffffffffffffffffffffff008254161790557f6f4a7ecbcc7559def9be5a77d9780862fb7d70dd3c72ba6a3baddafb96fc3b725f80a3005b346101fa5760207ffffffffffffffffffffffffffffffffffffffffffffffffffffffffffffffffc3601126101fa57600435610bb1611750565b805f52600160205260405f2073ffffffffffffffffffffffffffffffffffffffff8154168015610d89573303610d615760080160ff815416600481101561054e57610d395760027fffffffffffffffffffffffffffffffffffffffffffffffffffffffffffffff00825416179055805f52600160205260405f2073ffffffffffffffffffffffffffffffffffffffff80600183015416915416604051907fa9059cbb000000000000000000000000000000000000000000000000000000005f52600452670de0b6b3a764000060245260205f60448180865af19060015f5114821615610d18575b60405215610ced575033907fc0362da6f2ff36b382b34aec0814f6b3cdf89f5ef282a1d1f114d0c0b036d5965f80a360017f9b779b17422d0df92223018b32b4d1fa46e071723d6817e2486d003becc55f0055005b7f5274afe7000000000000000000000000000000000000000000000000000000005f5260045260245ffd5b906001811516610d3057823b15153d15161690610c98565b503d5f823e3d90fd5b7f8a2ef116000000000000000000000000000000000000000000000000000000005f5260045ffd5b7ffb7595a2000000000000000000000000000000000000000000000000000000005f5260045ffd5b7fd36d8965000000000000000000000000000000000000000000000000000000005f5260045ffd5b346101fa5760407ffffffffffffffffffffffffffffffffffffffffffffffffffffffffffffffffc3601126101fa57610de861155c565b73ffffffffffffffffffffffffffffffffffffffff610e0561157f565b91165f52600460205273ffffffffffffffffffffffffffffffffffffffff60405f2091165f52602052602060ff60405f2054166040519015158152f35b346101fa5760207ffffffffffffffffffffffffffffffffffffffffffffffffffffffffffffffffc3601126101fa57600435610e7c611e1e565b60648111610ebd5760407fb404cac19fb1cbeff98d325795b08886e3cd8fe8cb1a2f193aac66f13fb239c391600a549080600a5582519182526020820152a1005b60646040517f08c379a000000000000000000000000000000000000000000000000000000000815260206004820152600c60248201527f46656520746f6f206869676800000000000000000000000000000000000000006044820152fd5b346101fa575f7ffffffffffffffffffffffffffffffffffffffffffffffffffffffffffffffffc3601126101fa57610f51611e1e565b5f5460ff8160a01c1615610faf577fffffffffffffffffffffff00ffffffffffffffffffffffffffffffffffffffff165f557f5db9ee0a495bf2e6ff9c91a7834c1ba4fdd244a5e8aa4e537bd38aeae4b073aa6020604051338152a1005b7f8dfc202b000000000000000000000000000000000000000000000000000000005f5260045ffd5b346101fa575f7ffffffffffffffffffffffffffffffffffffffffffffffffffffffffffffffffc3601126101fa5760075460085442034281116101cd5761012c811061104657506060905f5b815f526002602052600360405f2001549060405192835260208301526040820152f35b61012c039061012c82116101cd57606091611023565b346101fa575f7ffffffffffffffffffffffffffffffffffffffffffffffffffffffffffffffffc3601126101fa576020600a54604051908152f35b60c07ffffffffffffffffffffffffffffffffffffffffffffffffffffffffffffffffc3601126101fa576110c961155c565b6110d161157f565b9073ffffffffffffffffffffffffffffffffffffffff60a435916110f3611750565b6110fb6117c7565b16805f52600460205260405f2073ffffffffffffffffffffffffffffffffffffffff84165f5260205260ff60405f2054161561148857428211156114605760085461012c81018091116101cd5742101561144b575b61115b600554611624565b918260055560075461116b6122ce565b9060405191610160830183811067ffffffffffffffff82111761141e576040523383526020830191858352604084019773ffffffffffffffffffffffffffffffffffffffff169485895260608501604435815260808601606435815260a0870191608435835260c0880193845260e0880194855261010088019b5f8d526101208901974289526101408a019788528c5f52600160205260405f20995173ffffffffffffffffffffffffffffffffffffffff1673ffffffffffffffffffffffffffffffffffffffff168a547fffffffffffffffffffffffff000000000000000000000000000000000000000016178a555173ffffffffffffffffffffffffffffffffffffffff1660018a019073ffffffffffffffffffffffffffffffffffffffff1681547fffffffffffffffffffffffff0000000000000000000000000000000000000000161790555173ffffffffffffffffffffffffffffffffffffffff16600289019073ffffffffffffffffffffffffffffffffffffffff1681547fffffffffffffffffffffffff00000000000000000000000000000000000000001617905551600388015551600487015551600586015551600685015551600784015560088301965191600483101561054e57602097600a9360ff7fffffffffffffffffffffffffffffffffffffffffffffffffffffffffffffff00835416911617905551600984015551910155335f52600384526113898360405f206116af565b6007545f52600284526113a283600760405f20016116af565b6007545f5260028452600360405f20016113bc8154611624565b905560075460405191825284820152827fa650554c26332efd323166dc25be0147eccd6657ec8e67247b69d4486e974c3a60403393a460017f9b779b17422d0df92223018b32b4d1fa46e071723d6817e2486d003becc55f0055604051908152f35b7f4e487b71000000000000000000000000000000000000000000000000000000005f52604160045260245ffd5b6114536117fd565b61145b611cad565b611150565b7fc56873ba000000000000000000000000000000000000000000000000000000005f5260045ffd5b7f85b9dc67000000000000000000000000000000000000000000000000000000005f5260045ffd5b346101fa575f7ffffffffffffffffffffffffffffffffffffffffffffffffffffffffffffffffc3601126101fa576020600854604051908152f35b346101fa575f7ffffffffffffffffffffffffffffffffffffffffffffffffffffffffffffffffc3601126101fa57602060405160648152f35b346101fa575f7ffffffffffffffffffffffffffffffffffffffffffffffffffffffffffffffffc3601126101fa576020906007548152f35b6004359073ffffffffffffffffffffffffffffffffffffffff821682036101fa57565b6024359073ffffffffffffffffffffffffffffffffffffffff821682036101fa57565b90600382101561054e5752565b90602080835192838152019201905f5b8181106115cc5750505090565b82518452602093840193909201916001016115bf565b80548210156115f7575f5260205f2001905f90565b7f4e487b71000000000000000000000000000000000000000000000000000000005f52603260045260245ffd5b7fffffffffffffffffffffffffffffffffffffffffffffffffffffffffffffffff81146101cd5760010190565b610100810190811067ffffffffffffffff82111761141e57604052565b90601f7fffffffffffffffffffffffffffffffffffffffffffffffffffffffffffffffe0910116810190811067ffffffffffffffff82111761141e57604052565b80546801000000000000000081101561141e576116d1916001820181556115e2565b7fffffffffffffffffffffffffffffffffffffffffffffffffffffffffffffffff829392549160031b92831b921b1916179055565b90604051918281549182825260208201905f5260205f20925f5b8181106117375750506117359250038361166e565b565b8454835260019485019487945060209093019201611720565b60027f9b779b17422d0df92223018b32b4d1fa46e071723d6817e2486d003becc55f00541461179f5760027f9b779b17422d0df92223018b32b4d1fa46e071723d6817e2486d003becc55f0055565b7f3ee5aeb5000000000000000000000000000000000000000000000000000000005f5260045ffd5b60ff5f5460a01c166117d557565b7fd93c0665000000000000000000000000000000000000000000000000000000005f5260045ffd5b6007545f52600260205260405f20600381015415611c7f576007810161182a61182582611706565b611e97565b905f935f5b8254811015611c045761184281846115e2565b90549060031b1c805f52600160205260405f2060ff600882015416600481101561054e57159081611bf6575b5061187d575b5060010161182f565b5f969196505f52600160205260405f20600481018054916118ad60038201936118a7898654612059565b906121b9565b6118b8888554612059565b9254908315611be6575b8115611bd1575b61197090606092604051956118de858861166e565b600287527fffffffffffffffffffffffffffffffffffffffffffffffffffffffffffffffe0850136602089013761191487611e6a565b5261191e86611e77565b526020809560405190611931838361166e565b5f82525f36813760405194859283927f1888debd000000000000000000000000000000000000000000000000000000008452600760056004860161229e565b03815f73ea30c4b8b44078bbf8a6ef5b9f1ec1626c7848d95af1918215611bc6575f92611b95575b506119c16119b6836119d494506119b08d8a54612059565b90611f53565b6005860154906121b9565b908015611b85575b8115611b73576123e4565b506008820160017fffffffffffffffffffffffffffffffffffffffffffffffffffffffffffffff0082541617905587600a830155611a13888554612059565b50600182019273ffffffffffffffffffffffffffffffffffffffff84541673ffffffffffffffffffffffffffffffffffffffff8060028601541694541692604051907f23b872dd000000000000000000000000000000000000000000000000000000005f528460045230602452670de0b6b3a7640000604452835f60648180875af19160015f5114831615611b52575b6040525f905215610ced5750604051917fa9059cbb000000000000000000000000000000000000000000000000000000005f52600452670d2f13f7789f00006024525f60448180865af19060015f5114821615611b3a575b60405215610ced575091611b2e611b339273ffffffffffffffffffffffffffffffffffffffff6001955416905490612467565b611624565b9590611874565b906001811516610d3057823b15153d15161690611afb565b916001811516611b6a573d15843b1515161691611aa3565b823d5f823e3d90fd5b9050611b7f600161235a565b906123e4565b50611b90600161235a565b6119c9565b91508482813d8311611bbf575b611bac818361166e565b810103126101fa579051906119c1611998565b503d611ba2565b6040513d5f823e3d90fd5b9050611970611bde6122ce565b9190506118c9565b9250611bf06122ce565b926118c2565b60069150015442105f61186e565b509392839250600691506004810160017fffffffffffffffffffffffffffffffffffffffffffffffffffffffffffffff0082541617905542600582015501557f87f9324b9cf64fd5934ef295cfd2744715a9c4fa74c33de6ba51a8c8f85f845a6060600754926040519081525f60208201525f6040820152a2565b60040160017fffffffffffffffffffffffffffffffffffffffffffffffffffffffffffffff00825416179055565b611cb8600654611624565b80600655806007554260085561012c4201908142116101cd5760209160405191611ce2848461166e565b5f83525f36813760405190611cf682611651565b80825284820142815260408301938452606083015f815260808401945f865260a08501925f845260c08601945f865260e087019889525f526002895260405f209551865551600186015551600285015551600384015560048301935193600385101561054e5760079460ff7fffffffffffffffffffffffffffffffffffffffffffffffffffffffffffffff0083541691161790555160058301555160068201550190519182519267ffffffffffffffff841161141e5768010000000000000000841161141e5781908354858555808610611df6575b5001915f52805f20905f5b848110611de4575050505050565b83518382015592810192600101611dd6565b845f5285835f2091820191015b818110611e105750611dcb565b5f8155849350600101611e03565b73ffffffffffffffffffffffffffffffffffffffff5f54163303611e3e57565b7f118cdaa7000000000000000000000000000000000000000000000000000000005f523360045260245ffd5b8051156115f75760200190565b8051600110156115f75760400190565b8051600210156115f75760600190565b90815115611f4957611ea76122ce565b611eaf6122ce565b925f5b8151811015611f395781518110156115f75760208160051b830101515f52600160205260405f2060ff600882015416600481101561054e5715611ef9575b50600101611eb2565b80611f2c6001939795611f26611f1d60036004611f32970154950194855490611f53565b93548094612059565b90612109565b94612109565b9490611ef0565b505091611f469192611f53565b90565b9050611f466122ce565b908115612049575b801561203b575b60405191611f7160608461166e565b600283526040366020850137611f8683611e6a565b52611f9082611e77565b52611fe56020809260405190611fa6838361166e565b5f82525f36813760405193849283927f1888debd000000000000000000000000000000000000000000000000000000008452600d60056004860161229e565b03815f73ea30c4b8b44078bbf8a6ef5b9f1ec1626c7848d95af1918215611bc6575f9261201157505090565b90809250813d8311612034575b612028818361166e565b810103126101fa575190565b503d61201e565b506120446122ce565b611f62565b90506120536122ce565b90611f5b565b9081156120f9575b80156120eb575b6040519161207760608461166e565b60028352604036602085013761208c83611e6a565b5261209682611e77565b52611fe560208092604051906120ac838361166e565b5f82525f36813760405193849283927f1888debd000000000000000000000000000000000000000000000000000000008452600f60056004860161229e565b506120f46122ce565b612068565b90506121036122ce565b90612061565b9081156121a9575b801561219b575b6040519161212760608461166e565b60028352604036602085013761213c83611e6a565b5261214682611e77565b52611fe5602080926040519061215c838361166e565b5f82525f36813760405193849283927f1888debd000000000000000000000000000000000000000000000000000000008452600860056004860161229e565b506121a46122ce565b612118565b90506121b36122ce565b90612111565b908115612259575b801561224b575b604051916121d760608461166e565b6002835260403660208501376121ec83611e6a565b526121f682611e77565b52611fe5602080926040519061220c838361166e565b5f82525f36813760405193849283927f1888debd000000000000000000000000000000000000000000000000000000008452601360056004860161229e565b506122546122ce565b6121c8565b90506122636122ce565b906121c1565b916122909060ff611f469593168452601a60208501526080604085015260808401906115af565b9160608184039101526115af565b9293919060ff168352602081101561054e57611f46936122909160208501526080604085015260808401906115af565b6020611fe5816040516122e1828261166e565b5f81525f368137604051906122f760808361166e565b60038252606036848401375f61230c83611e6a565b52600561231883611e77565b525f61232383611e87565b5260405193849283927f1888debd000000000000000000000000000000000000000000000000000000008452600560048501612269565b611fe56020809260405161236e838261166e565b5f81525f3681376040519161238460808461166e565b600383526060368585013761239883611e6a565b525f6123a383611e77565b525f6123ae83611e87565b5260405193849283927f1888debd0000000000000000000000000000000000000000000000000000000084525f60048501612269565b90604051916123f460608461166e565b60028352604036602085013761240983611e6a565b5261241382611e77565b52611fe56020809260405190612429838361166e565b5f82525f36813760405193849283927f1888debd000000000000000000000000000000000000000000000000000000008452600a5f6004860161229e565b600a549182156126c2576020926124b184604051612485828261166e565b5f81525f3681376040519061249b60808361166e565b6003825260609485368585013761230c83611e6a565b03815f73ea30c4b8b44078bbf8a6ef5b9f1ec1626c7848d95af1928315611bc65785915f9461268f575b50612570936124e991612059565b916040516124f7838261166e565b5f81525f3681376040519161250d60808461166e565b60038352368484013761271061252283611e6a565b52600561252e83611e77565b525f61253983611e87565b5260405194859283927f1888debd000000000000000000000000000000000000000000000000000000008452600560048501612269565b03815f73ea30c4b8b44078bbf8a6ef5b9f1ec1626c7848d95af1908115611bc6575f9161265e575b6125a29250611f53565b50600a549081670de0b6b3a76400000291670de0b6b3a76400008304036101cd5773ffffffffffffffffffffffffffffffffffffffff169161271073ffffffffffffffffffffffffffffffffffffffff6009541692604051937fa9059cbb000000000000000000000000000000000000000000000000000000005f52600452046024525f60448180865af19060015f5114821615612646575b60405215610ced5750565b906001811516610d3057823b15153d1516169061263b565b90508382813d8311612688575b612675818361166e565b810103126101fa576125a2915190612598565b503d61266b565b93509083813d81116126bb575b6126a6818361166e565b810103126101fa5791519184906124e96124db565b503d61269c565b50505056","linkReferences":{}},"methodIdentifiers":{"BATCH_WINDOW()":"5f45e292","MAX_ORDERS_PER_BATCH()":"146aea36","MAX_SLIPPAGE_BASIS_POINTS()":"5dc154ba","MIN_ORDER_VALUE()":"bb28dc00","addTradingPair(address,address)":"5728c3f1","batchCounter()":"68233eef","batches(uint256)":"b32c4d8d","cancelOrder(uint256)":"514fcac7","currentBatchId()":"0a763da1","currentBatchStartTime()":"1f352578","executeBatch()":"f85d107c","feeCollector()":"c415b95c","getBatch(uint256)":"5ac44282","getCurrentBatchStatus()":"3e942a69","getUserOrders(address)":"63c69f08","orderCounter()":"b789bf52","orders(uint256)":"a85c38ef","owner()":"8da5cb5b","pause()":"8456cb59","paused()":"5c975abb","protocolFeeBps()":"35659fb8","renounceOwnership()":"715018a6","submitOrder(address,address,uint256,uint256,uint256,uint256)":"2c10617c","supportedPairs(address,address)":"461100bb","transferOwnership(address)":"f2fde38b","unpause()":"3f4ba83a","updateProtocolFee(uint256)":"4256dd78","userOrders(address,uint256)":"856652e9"},"id":0}