{"abi":[{"type":"constructor","inputs":[{"name":"_poolManager","type":"address","internalType":"contract IPoolManager"},{"name":"initialOwner","type":"address","internalType":"address"}],"stateMutability":"nonpayable"},{"type":"function","name":"afterAddLiquidity","inputs":[{"name":"","type":"address","internalType":"address"},{"name":"key","type":"tuple","internalType":"struct PoolKey","components":[{"name":"currency0","type":"address","internalType":"Currency"},{"name":"currency1","type":"address","internalType":"Currency"},{"name":"fee","type":"uint24","internalType":"uint24"},{"name":"tickSpacing","type":"int24","internalType":"int24"},{"name":"hooks","type":"address","internalType":"contract IHooks"}]},{"name":"params","type":"tuple","internalType":"struct IPoolManager.ModifyLiquidityParams","components":[{"name":"tickLower","type":"int24","internalType":"int24"},{"name":"tickUpper","type":"int24","internalType":"int24"},{"name":"liquidityDelta","type":"int256","internalType":"int256"},{"name":"salt","type":"bytes32","internalType":"bytes32"}]},{"name":"delta","type":"int256","internalType":"BalanceDelta"},{"name":"feesAccrued","type":"int256","internalType":"BalanceDelta"},{"name":"hookData","type":"bytes","internalType":"bytes"}],"outputs":[{"name":"","type":"bytes4","internalType":"bytes4"},{"name":"","type":"int256","internalType":"BalanceDelta"}],"stateMutability":"nonpayable"},{"type":"function","name":"afterDonate","inputs":[{"name":"","type":"address","internalType":"address"},{"name":"","type":"tuple","internalType":"struct PoolKey","components":[{"name":"currency0","type":"address","internalType":"Currency"},{"name":"currency1","type":"address","internalType":"Currency"},{"name":"fee","type":"uint24","internalType":"uint24"},{"name":"tickSpacing","type":"int24","internalType":"int24"},{"name":"hooks","type":"address","internalType":"contract IHooks"}]},{"name":"","type":"uint256","internalType":"uint256"},{"name":"","type":"uint256","internalType":"uint256"},{"name":"","type":"bytes","internalType":"bytes"}],"outputs":[{"name":"","type":"bytes4","internalType":"bytes4"}],"stateMutability":"view"},{"type":"function","name":"afterInitialize","inputs":[{"name":"","type":"address","internalType":"address"},{"name":"key","type":"tuple","internalType":"struct PoolKey","components":[{"name":"currency0","type":"address","internalType":"Currency"},{"name":"currency1","type":"address","internalType":"Currency"},{"name":"fee","type":"uint24","internalType":"uint24"},{"name":"tickSpacing","type":"int24","internalType":"int24"},{"name":"hooks","type":"address","internalType":"contract IHooks"}]},{"name":"sqrtPriceX96","type":"uint160","internalType":"uint160"},{"name":"tick","type":"int24","internalType":"int24"}],"outputs":[{"name":"","type":"bytes4","internalType":"bytes4"}],"stateMutability":"nonpayable"},{"type":"function","name":"afterRemoveLiquidity","inputs":[{"name":"","type":"address","internalType":"address"},{"name":"key","type":"tuple","internalType":"struct PoolKey","components":[{"name":"currency0","type":"address","internalType":"Currency"},{"name":"currency1","type":"address","internalType":"Currency"},{"name":"fee","type":"uint24","internalType":"uint24"},{"name":"tickSpacing","type":"int24","internalType":"int24"},{"name":"hooks","type":"address","internalType":"contract IHooks"}]},{"name":"params","type":"tuple","internalType":"struct IPoolManager.ModifyLiquidityParams","components":[{"name":"tickLower","type":"int24","internalType":"int24"},{"name":"tickUpper","type":"int24","internalType":"int24"},{"name":"liquidityDelta","type":"int256","internalType":"int256"},{"name":"salt","type":"bytes32","internalType":"bytes32"}]},{"name":"delta","type":"int256","internalType":"BalanceDelta"},{"name":"feesAccrued","type":"int256","internalType":"BalanceDelta"},{"name":"hookData","type":"bytes","internalType":"bytes"}],"outputs":[{"name":"","type":"bytes4","internalType":"bytes4"},{"name":"","type":"int256","internalType":"BalanceDelta"}],"stateMutability":"nonpayable"},{"type":"function","name":"afterSwap","inputs":[{"name":"","type":"address","internalType":"address"},{"name":"key","type":"tuple","internalType":"struct PoolKey","components":[{"name":"currency0","type":"address","internalType":"Currency"},{"name":"currency1","type":"address","internalType":"Currency"},{"name":"fee","type":"uint24","internalType":"uint24"},{"name":"tickSpacing","type":"int24","internalType":"int24"},{"name":"hooks","type":"address","internalType":"contract IHooks"}]},{"name":"params","type":"tuple","internalType":"struct IPoolManager.SwapParams","components":[{"name":"zeroForOne","type":"bool","internalType":"bool"},{"name":"amountSpecified","type":"int256","internalType":"int256"},{"name":"sqrtPriceLimitX96","type":"uint160","internalType":"uint160"}]},{"name":"delta","type":"int256","internalType":"BalanceDelta"},{"name":"hookData","type":"bytes","internalType":"bytes"}],"outputs":[{"name":"","type":"bytes4","internalType":"bytes4"},{"name":"","type":"int128","internalType":"int128"}],"stateMutability":"nonpayable"},{"type":"function","name":"authorizeStrategist","inputs":[{"name":"poolId","type":"bytes32","internalType":"PoolId"},{"name":"strategist","type":"address","internalType":"address"},{"name":"authorized","type":"bool","internalType":"bool"}],"outputs":[],"stateMutability":"nonpayable"},{"type":"function","name":"authorizedStrategists","inputs":[{"name":"","type":"bytes32","internalType":"PoolId"},{"name":"","type":"address","internalType":"address"}],"outputs":[{"name":"","type":"bool","internalType":"bool"}],"stateMutability":"view"},{"type":"function","name":"beforeAddLiquidity","inputs":[{"name":"","type":"address","internalType":"address"},{"name":"key","type":"tuple","internalType":"struct PoolKey","components":[{"name":"currency0","type":"address","internalType":"Currency"},{"name":"currency1","type":"address","internalType":"Currency"},{"name":"fee","type":"uint24","internalType":"uint24"},{"name":"tickSpacing","type":"int24","internalType":"int24"},{"name":"hooks","type":"address","internalType":"contract IHooks"}]},{"name":"params","type":"tuple","internalType":"struct IPoolManager.ModifyLiquidityParams","components":[{"name":"tickLower","type":"int24","internalType":"int24"},{"name":"tickUpper","type":"int24","internalType":"int24"},{"name":"liquidityDelta","type":"int256","internalType":"int256"},{"name":"salt","type":"bytes32","internalType":"bytes32"}]},{"name":"hookData","type":"bytes","internalType":"bytes"}],"outputs":[{"name":"","type":"bytes4","internalType":"bytes4"}],"stateMutability":"nonpayable"},{"type":"function","name":"beforeDonate","inputs":[{"name":"","type":"address","internalType":"address"},{"name":"","type":"tuple","internalType":"struct PoolKey","components":[{"name":"currency0","type":"address","internalType":"Currency"},{"name":"currency1","type":"address","internalType":"Currency"},{"name":"fee","type":"uint24","internalType":"uint24"},{"name":"tickSpacing","type":"int24","internalType":"int24"},{"name":"hooks","type":"address","internalType":"contract IHooks"}]},{"name":"","type":"uint256","internalType":"uint256"},{"name":"","type":"uint256","internalType":"uint256"},{"name":"","type":"bytes","internalType":"bytes"}],"outputs":[{"name":"","type":"bytes4","internalType":"bytes4"}],"stateMutability":"view"},{"type":"function","name":"beforeInitialize","inputs":[{"name":"","type":"address","internalType":"address"},{"name":"key","type":"tuple","internalType":"struct PoolKey","components":[{"name":"currency0","type":"address","internalType":"Currency"},{"name":"currency1","type":"address","internalType":"Currency"},{"name":"fee","type":"uint24","internalType":"uint24"},{"name":"tickSpacing","type":"int24","internalType":"int24"},{"name":"hooks","type":"address","internalType":"contract IHooks"}]},{"name":"sqrtPriceX96","type":"uint160","internalType":"uint160"}],"outputs":[{"name":"","type":"bytes4","internalType":"bytes4"}],"stateMutability":"nonpayable"},{"type":"function","name":"beforeRemoveLiquidity","inputs":[{"name":"","type":"address","internalType":"address"},{"name":"key","type":"tuple","internalType":"struct PoolKey","components":[{"name":"currency0","type":"address","internalType":"Currency"},{"name":"currency1","type":"address","internalType":"Currency"},{"name":"fee","type":"uint24","internalType":"uint24"},{"name":"tickSpacing","type":"int24","internalType":"int24"},{"name":"hooks","type":"address","internalType":"contract IHooks"}]},{"name":"params","type":"tuple","internalType":"struct IPoolManager.ModifyLiquidityParams","components":[{"name":"tickLower","type":"int24","internalType":"int24"},{"name":"tickUpper","type":"int24","internalType":"int24"},{"name":"liquidityDelta","type":"int256","internalType":"int256"},{"name":"salt","type":"bytes32","internalType":"bytes32"}]},{"name":"hookData","type":"bytes","internalType":"bytes"}],"outputs":[{"name":"","type":"bytes4","internalType":"bytes4"}],"stateMutability":"nonpayable"},{"type":"function","name":"beforeSwap","inputs":[{"name":"","type":"address","internalType":"address"},{"name":"key","type":"tuple","internalType":"struct PoolKey","components":[{"name":"currency0","type":"address","internalType":"Currency"},{"name":"currency1","type":"address","internalType":"Currency"},{"name":"fee","type":"uint24","internalType":"uint24"},{"name":"tickSpacing","type":"int24","internalType":"int24"},{"name":"hooks","type":"address","internalType":"contract IHooks"}]},{"name":"params","type":"tuple","internalType":"struct IPoolManager.SwapParams","components":[{"name":"zeroForOne","type":"bool","internalType":"bool"},{"name":"amountSpecified","type":"int256","internalType":"int256"},{"name":"sqrtPriceLimitX96","type":"uint160","internalType":"uint160"}]},{"name":"hookData","type":"bytes","internalType":"bytes"}],"outputs":[{"name":"","type":"bytes4","internalType":"bytes4"},{"name":"","type":"int256","internalType":"BeforeSwapDelta"},{"name":"","type":"uint24","internalType":"uint24"}],"stateMutability":"nonpayable"},{"type":"function","name":"calculateCustomPrice","inputs":[{"name":"poolId","type":"bytes32","internalType":"PoolId"},{"name":"amountIn","type":"uint256","internalType":"uint256"},{"name":"zeroForOne","type":"bool","internalType":"bool"}],"outputs":[{"name":"amountOut","type":"uint256","internalType":"uint256"},{"name":"gasUsed","type":"uint256","internalType":"uint256"}],"stateMutability":"nonpayable"},{"type":"function","name":"checkCurveHealth","inputs":[{"name":"poolId","type":"bytes32","internalType":"PoolId"}],"outputs":[{"name":"isHealthy","type":"bool","internalType":"bool"},{"name":"healthScore","type":"uint256","internalType":"uint256"}],"stateMutability":"view"},{"type":"function","name":"clearExpiredCache","inputs":[{"name":"poolId","type":"bytes32","internalType":"PoolId"}],"outputs":[{"name":"cleared","type":"uint256","internalType":"uint256"}],"stateMutability":"nonpayable"},{"type":"function","name":"curveStates","inputs":[{"name":"","type":"bytes32","internalType":"PoolId"}],"outputs":[{"name":"lastUpdateTime","type":"uint256","internalType":"uint256"},{"name":"totalLiquidity","type":"uint256","internalType":"uint256"},{"name":"reserves0","type":"uint256","internalType":"uint256"},{"name":"reserves1","type":"uint256","internalType":"uint256"},{"name":"volume24h","type":"uint256","internalType":"uint256"},{"name":"feeAccumulated","type":"uint256","internalType":"uint256"},{"name":"priceImpact","type":"uint256","internalType":"uint256"},{"name":"isActive","type":"bool","internalType":"bool"}],"stateMutability":"view"},{"type":"function","name":"darkPoolEngine","inputs":[],"outputs":[{"name":"","type":"address","internalType":"contract IDarkPoolEngine"}],"stateMutability":"view"},{"type":"function","name":"emergencyPause","inputs":[{"name":"poolId","type":"bytes32","internalType":"PoolId"}],"outputs":[],"stateMutability":"nonpayable"},{"type":"function","name":"getCachedResult","inputs":[{"name":"poolId","type":"bytes32","internalType":"PoolId"},{"name":"cacheKey","type":"bytes32","internalType":"bytes32"}],"outputs":[{"name":"result","type":"uint256","internalType":"euint64"},{"name":"found","type":"bool","internalType":"bool"}],"stateMutability":"view"},{"type":"function","name":"getCurveParams","inputs":[{"name":"poolId","type":"bytes32","internalType":"PoolId"}],"outputs":[{"name":"params","type":"tuple","internalType":"struct ICustomCurve.CurveParams","components":[{"name":"curveType","type":"uint8","internalType":"enum ICustomCurve.CurveType"},{"name":"encryptedCoefficients","type":"uint256[]","internalType":"euint64[]"},{"name":"formulaHash","type":"bytes32","internalType":"bytes32"},{"name":"maxLeverage","type":"uint256","internalType":"uint256"},{"name":"volatilityFactor","type":"uint256","internalType":"uint256"},{"name":"minLiquidity","type":"uint256","internalType":"uint256"},{"name":"maxSlippage","type":"uint256","internalType":"uint256"},{"name":"timeDecayRate","type":"uint256","internalType":"uint256"},{"name":"isActive","type":"bool","internalType":"bool"},{"name":"lastUpdate","type":"uint256","internalType":"uint256"},{"name":"strategist","type":"address","internalType":"address"}]}],"stateMutability":"view"},{"type":"function","name":"getCurveState","inputs":[{"name":"poolId","type":"bytes32","internalType":"PoolId"}],"outputs":[{"name":"state","type":"tuple","internalType":"struct ICustomCurve.CurveState","components":[{"name":"lastUpdateTime","type":"uint256","internalType":"uint256"},{"name":"totalLiquidity","type":"uint256","internalType":"uint256"},{"name":"reserves0","type":"uint256","internalType":"uint256"},{"name":"reserves1","type":"uint256","internalType":"uint256"},{"name":"volume24h","type":"uint256","internalType":"uint256"},{"name":"feeAccumulated","type":"uint256","internalType":"uint256"},{"name":"priceImpact","type":"uint256","internalType":"uint256"},{"name":"isActive","type":"bool","internalType":"bool"}]}],"stateMutability":"view"},{"type":"function","name":"getHookPermissions","inputs":[],"outputs":[{"name":"","type":"tuple","internalType":"struct Hooks.Permissions","components":[{"name":"beforeInitialize","type":"bool","internalType":"bool"},{"name":"afterInitialize","type":"bool","internalType":"bool"},{"name":"beforeAddLiquidity","type":"bool","internalType":"bool"},{"name":"afterAddLiquidity","type":"bool","internalType":"bool"},{"name":"beforeRemoveLiquidity","type":"bool","internalType":"bool"},{"name":"afterRemoveLiquidity","type":"bool","internalType":"bool"},{"name":"beforeSwap","type":"bool","internalType":"bool"},{"name":"afterSwap","type":"bool","internalType":"bool"},{"name":"beforeDonate","type":"bool","internalType":"bool"},{"name":"afterDonate","type":"bool","internalType":"bool"},{"name":"beforeSwapReturnDelta","type":"bool","internalType":"bool"},{"name":"afterSwapReturnDelta","type":"bool","internalType":"bool"},{"name":"afterAddLiquidityReturnDelta","type":"bool","internalType":"bool"},{"name":"afterRemoveLiquidityReturnDelta","type":"bool","internalType":"bool"}]}],"stateMutability":"pure"},{"type":"function","name":"hookConfig","inputs":[],"outputs":[{"name":"maxGasPerCalculation","type":"uint256","internalType":"uint256"},{"name":"cacheTimeout","type":"uint256","internalType":"uint256"},{"name":"precomputeInterval","type":"uint256","internalType":"uint256"},{"name":"minLiquidityThreshold","type":"uint256","internalType":"uint256"},{"name":"emergencyMode","type":"bool","internalType":"bool"}],"stateMutability":"view"},{"type":"function","name":"initializeCurve","inputs":[{"name":"poolId","type":"bytes32","internalType":"PoolId"},{"name":"params","type":"tuple","internalType":"struct ICustomCurve.CurveParams","components":[{"name":"curveType","type":"uint8","internalType":"enum ICustomCurve.CurveType"},{"name":"encryptedCoefficients","type":"uint256[]","internalType":"euint64[]"},{"name":"formulaHash","type":"bytes32","internalType":"bytes32"},{"name":"maxLeverage","type":"uint256","internalType":"uint256"},{"name":"volatilityFactor","type":"uint256","internalType":"uint256"},{"name":"minLiquidity","type":"uint256","internalType":"uint256"},{"name":"maxSlippage","type":"uint256","internalType":"uint256"},{"name":"timeDecayRate","type":"uint256","internalType":"uint256"},{"name":"isActive","type":"bool","internalType":"bool"},{"name":"lastUpdate","type":"uint256","internalType":"uint256"},{"name":"strategist","type":"address","internalType":"address"}]}],"outputs":[{"name":"success","type":"bool","internalType":"bool"}],"stateMutability":"nonpayable"},{"type":"function","name":"owner","inputs":[],"outputs":[{"name":"","type":"address","internalType":"address"}],"stateMutability":"view"},{"type":"function","name":"pause","inputs":[],"outputs":[],"stateMutability":"nonpayable"},{"type":"function","name":"paused","inputs":[],"outputs":[{"name":"","type":"bool","internalType":"bool"}],"stateMutability":"view"},{"type":"function","name":"poolCurves","inputs":[{"name":"","type":"bytes32","internalType":"PoolId"}],"outputs":[{"name":"curveType","type":"uint8","internalType":"enum ICustomCurve.CurveType"},{"name":"formulaHash","type":"bytes32","internalType":"bytes32"},{"name":"maxLeverage","type":"uint256","internalType":"uint256"},{"name":"volatilityFactor","type":"uint256","internalType":"uint256"},{"name":"minLiquidity","type":"uint256","internalType":"uint256"},{"name":"maxSlippage","type":"uint256","internalType":"uint256"},{"name":"timeDecayRate","type":"uint256","internalType":"uint256"},{"name":"isActive","type":"bool","internalType":"bool"},{"name":"lastUpdate","type":"uint256","internalType":"uint256"},{"name":"strategist","type":"address","internalType":"address"}],"stateMutability":"view"},{"type":"function","name":"poolManager","inputs":[],"outputs":[{"name":"","type":"address","internalType":"contract IPoolManager"}],"stateMutability":"view"},{"type":"function","name":"renounceOwnership","inputs":[],"outputs":[],"stateMutability":"nonpayable"},{"type":"function","name":"resumeCurve","inputs":[{"name":"poolId","type":"bytes32","internalType":"PoolId"}],"outputs":[],"stateMutability":"nonpayable"},{"type":"function","name":"setCachedResult","inputs":[{"name":"poolId","type":"bytes32","internalType":"PoolId"},{"name":"cacheKey","type":"bytes32","internalType":"bytes32"},{"name":"result","type":"uint256","internalType":"euint64"}],"outputs":[],"stateMutability":"nonpayable"},{"type":"function","name":"setEmergencyMode","inputs":[{"name":"enabled","type":"bool","internalType":"bool"}],"outputs":[],"stateMutability":"nonpayable"},{"type":"function","name":"strategyWeaver","inputs":[],"outputs":[{"name":"","type":"address","internalType":"contract IStrategyWeaver"}],"stateMutability":"view"},{"type":"function","name":"transferOwnership","inputs":[{"name":"newOwner","type":"address","internalType":"address"}],"outputs":[],"stateMutability":"nonpayable"},{"type":"function","name":"transferStrategist","inputs":[{"name":"poolId","type":"bytes32","internalType":"PoolId"},{"name":"newStrategist","type":"address","internalType":"address"}],"outputs":[],"stateMutability":"nonpayable"},{"type":"function","name":"unpause","inputs":[],"outputs":[],"stateMutability":"nonpayable"},{"type":"function","name":"updateCurveParameters","inputs":[{"name":"poolId","type":"bytes32","internalType":"PoolId"},{"name":"newParams","type":"tuple","internalType":"struct ICustomCurve.CurveParams","components":[{"name":"curveType","type":"uint8","internalType":"enum ICustomCurve.CurveType"},{"name":"encryptedCoefficients","type":"uint256[]","internalType":"euint64[]"},{"name":"formulaHash","type":"bytes32","internalType":"bytes32"},{"name":"maxLeverage","type":"uint256","internalType":"uint256"},{"name":"volatilityFactor","type":"uint256","internalType":"uint256"},{"name":"minLiquidity","type":"uint256","internalType":"uint256"},{"name":"maxSlippage","type":"uint256","internalType":"uint256"},{"name":"timeDecayRate","type":"uint256","internalType":"uint256"},{"name":"isActive","type":"bool","internalType":"bool"},{"name":"lastUpdate","type":"uint256","internalType":"uint256"},{"name":"strategist","type":"address","internalType":"address"}]}],"outputs":[{"name":"success","type":"bool","internalType":"bool"}],"stateMutability":"nonpayable"},{"type":"function","name":"updateHookConfig","inputs":[{"name":"newConfig","type":"tuple","internalType":"struct CustomCurveHook.HookConfig","components":[{"name":"maxGasPerCalculation","type":"uint256","internalType":"uint256"},{"name":"cacheTimeout","type":"uint256","internalType":"uint256"},{"name":"precomputeInterval","type":"uint256","internalType":"uint256"},{"name":"minLiquidityThreshold","type":"uint256","internalType":"uint256"},{"name":"emergencyMode","type":"bool","internalType":"bool"}]}],"outputs":[],"stateMutability":"nonpayable"},{"type":"function","name":"validateSlippage","inputs":[{"name":"poolId","type":"bytes32","internalType":"PoolId"},{"name":"expectedPrice","type":"uint256","internalType":"uint256"},{"name":"actualPrice","type":"uint256","internalType":"uint256"}],"outputs":[{"name":"isValid","type":"bool","internalType":"bool"}],"stateMutability":"view"},{"type":"event","name":"ApproximationUsed","inputs":[{"name":"functionName","type":"string","indexed":true,"internalType":"string"},{"name":"terms","type":"uint256","indexed":false,"internalType":"uint256"},{"name":"gasUsed","type":"uint256","indexed":false,"internalType":"uint256"}],"anonymous":false},{"type":"event","name":"CacheCleared","inputs":[{"name":"poolId","type":"bytes32","indexed":true,"internalType":"PoolId"},{"name":"itemsCleared","type":"uint256","indexed":false,"internalType":"uint256"}],"anonymous":false},{"type":"event","name":"CacheHit","inputs":[{"name":"key","type":"bytes32","indexed":true,"internalType":"bytes32"},{"name":"gasUsed","type":"uint256","indexed":false,"internalType":"uint256"}],"anonymous":false},{"type":"event","name":"ComputationCached","inputs":[{"name":"poolId","type":"bytes32","indexed":true,"internalType":"PoolId"},{"name":"cacheKey","type":"bytes32","indexed":true,"internalType":"bytes32"},{"name":"gasUsed","type":"uint256","indexed":false,"internalType":"uint256"},{"name":"timestamp","type":"uint256","indexed":false,"internalType":"uint256"}],"anonymous":false},{"type":"event","name":"ConstantsInitialized","inputs":[{"name":"gasUsed","type":"uint256","indexed":false,"internalType":"uint256"}],"anonymous":false},{"type":"event","name":"CurveCalculated","inputs":[{"name":"curveType","type":"uint8","indexed":true,"internalType":"enum ICustomCurve.CurveType"},{"name":"gasUsed","type":"uint256","indexed":false,"internalType":"uint256"},{"name":"cacheHit","type":"bool","indexed":false,"internalType":"bool"},{"name":"timestamp","type":"uint256","indexed":false,"internalType":"uint256"}],"anonymous":false},{"type":"event","name":"CurveParametersUpdated","inputs":[{"name":"poolId","type":"bytes32","indexed":true,"internalType":"PoolId"},{"name":"strategist","type":"address","indexed":true,"internalType":"address"},{"name":"curveType","type":"uint8","indexed":false,"internalType":"enum ICustomCurve.CurveType"},{"name":"timestamp","type":"uint256","indexed":false,"internalType":"uint256"}],"anonymous":false},{"type":"event","name":"CurveStateUpdated","inputs":[{"name":"poolId","type":"bytes32","indexed":true,"internalType":"PoolId"},{"name":"reserves0","type":"uint256","indexed":false,"internalType":"uint256"},{"name":"reserves1","type":"uint256","indexed":false,"internalType":"uint256"},{"name":"totalLiquidity","type":"uint256","indexed":false,"internalType":"uint256"},{"name":"timestamp","type":"uint256","indexed":false,"internalType":"uint256"}],"anonymous":false},{"type":"event","name":"CustomPriceCalculated","inputs":[{"name":"poolId","type":"bytes32","indexed":true,"internalType":"PoolId"},{"name":"inputAmount","type":"uint256","indexed":false,"internalType":"uint256"},{"name":"outputAmount","type":"uint256","indexed":false,"internalType":"uint256"},{"name":"price","type":"uint256","indexed":false,"internalType":"uint256"},{"name":"gasUsed","type":"uint256","indexed":false,"internalType":"uint256"}],"anonymous":false},{"type":"event","name":"DecryptionCompleted","inputs":[{"name":"poolId","type":"bytes32","indexed":true,"internalType":"PoolId"},{"name":"decryptedValue","type":"uint256","indexed":false,"internalType":"uint256"}],"anonymous":false},{"type":"event","name":"DecryptionRequested","inputs":[{"name":"poolId","type":"bytes32","indexed":true,"internalType":"PoolId"},{"name":"encryptedValue","type":"uint256","indexed":false,"internalType":"euint64"}],"anonymous":false},{"type":"event","name":"EmergencyModeToggled","inputs":[{"name":"enabled","type":"bool","indexed":false,"internalType":"bool"}],"anonymous":false},{"type":"event","name":"HookConfigUpdated","inputs":[{"name":"maxGasPerCalculation","type":"uint256","indexed":false,"internalType":"uint256"},{"name":"cacheTimeout","type":"uint256","indexed":false,"internalType":"uint256"},{"name":"precomputeInterval","type":"uint256","indexed":false,"internalType":"uint256"}],"anonymous":false},{"type":"event","name":"OwnershipTransferred","inputs":[{"name":"previousOwner","type":"address","indexed":true,"internalType":"address"},{"name":"newOwner","type":"address","indexed":true,"internalType":"address"}],"anonymous":false},{"type":"event","name":"Paused","inputs":[{"name":"account","type":"address","indexed":false,"internalType":"address"}],"anonymous":false},{"type":"event","name":"PrecomputationExecuted","inputs":[{"name":"poolId","type":"bytes32","indexed":true,"internalType":"PoolId"},{"name":"pricePoints","type":"uint256","indexed":false,"internalType":"uint256"},{"name":"gasUsed","type":"uint256","indexed":false,"internalType":"uint256"}],"anonymous":false},{"type":"event","name":"StrategistAuthorized","inputs":[{"name":"poolId","type":"bytes32","indexed":true,"internalType":"PoolId"},{"name":"strategist","type":"address","indexed":true,"internalType":"address"},{"name":"authorized","type":"bool","indexed":false,"internalType":"bool"}],"anonymous":false},{"type":"event","name":"SwapComputationCached","inputs":[{"name":"swapId","type":"bytes32","indexed":true,"internalType":"bytes32"},{"name":"fallbackPrice","type":"uint256","indexed":false,"internalType":"uint256"}],"anonymous":false},{"type":"event","name":"SwapComputationCompleted","inputs":[{"name":"swapId","type":"bytes32","indexed":true,"internalType":"bytes32"},{"name":"finalPrice","type":"uint256","indexed":false,"internalType":"uint256"}],"anonymous":false},{"type":"event","name":"Unpaused","inputs":[{"name":"account","type":"address","indexed":false,"internalType":"address"}],"anonymous":false},{"type":"error","name":"CacheExpired","inputs":[{"name":"cacheKey","type":"bytes32","internalType":"bytes32"}]},{"type":"error","name":"ComputationFailed","inputs":[{"name":"reason","type":"string","internalType":"string"}]},{"type":"error","name":"CurveNotActive","inputs":[{"name":"poolId","type":"bytes32","internalType":"PoolId"}]},{"type":"error","name":"EmergencyModeActive","inputs":[]},{"type":"error","name":"EnforcedPause","inputs":[]},{"type":"error","name":"ExpectedPause","inputs":[]},{"type":"error","name":"GasLimitExceeded","inputs":[{"name":"gasUsed","type":"uint256","internalType":"uint256"},{"name":"gasLimit","type":"uint256","internalType":"uint256"}]},{"type":"error","name":"HookNotImplemented","inputs":[]},{"type":"error","name":"InsufficientLiquidity","inputs":[{"name":"available","type":"uint256","internalType":"uint256"},{"name":"required","type":"uint256","internalType":"uint256"}]},{"type":"error","name":"InsufficientLiquidityForCurve","inputs":[{"name":"available","type":"uint256","internalType":"uint256"},{"name":"required","type":"uint256","internalType":"uint256"}]},{"type":"error","name":"InvalidCurveType","inputs":[{"name":"curveType","type":"uint8","internalType":"enum ICustomCurve.CurveType"}]},{"type":"error","name":"InvalidParameters","inputs":[{"name":"reason","type":"string","internalType":"string"}]},{"type":"error","name":"LeverageExceeded","inputs":[{"name":"requested","type":"uint256","internalType":"uint256"},{"name":"maximum","type":"uint256","internalType":"uint256"}]},{"type":"error","name":"NotPoolManager","inputs":[]},{"type":"error","name":"OwnableInvalidOwner","inputs":[{"name":"owner","type":"address","internalType":"address"}]},{"type":"error","name":"OwnableUnauthorizedAccount","inputs":[{"name":"account","type":"address","internalType":"address"}]},{"type":"error","name":"ReentrancyGuardReentrantCall","inputs":[]},{"type":"error","name":"SecurityZoneOutOfBounds","inputs":[{"name":"value","type":"int32","internalType":"int32"}]},{"type":"error","name":"SlippageExceeded","inputs":[{"name":"actual","type":"uint256","internalType":"uint256"},{"name":"maximum","type":"uint256","internalType":"uint256"}]},{"type":"error","name":"UnauthorizedStrategist","inputs":[{"name":"caller","type":"address","internalType":"address"},{"name":"strategist","type":"address","internalType":"address"}]},{"type":"error","name":"UnsupportedCurveType","inputs":[{"name":"curveType","type":"uint8","internalType":"enum ICustomCurve.CurveType"}]}],"bytecode":{"object":"0x60a0604052346103cc57604051601f615ee138819003918201601f19168301916001600160401b038311848410176102c95780849260409485528339810103126103cc578051906001600160a01b03821682036103cc57602001516001600160a01b038116908190036103cc5780156103b9575f80546001600160a01b03198116831782556001600160a01b0316907f8be0079c531659141344cd1fd0a4f28419497f9722a3daafe3b4186f6b6457e09080a360017f9b779b17422d0df92223018b32b4d1fa46e071723d6817e2486d003becc55f00556080525f6101a06100e56103d0565b8281528260208201528260408201528260608201528260808201528260a08201528260c08201528260e08201528261010082015282610120820152826101408201528261016082015282610180820152015260016101a06101446103d0565b8281528260208201528260408201528260608201528260808201528260a08201528260c08201528260e08201525f6101008201525f610120820152826101408201525f610160820152826101808201520152612000301615156001148015906103a8575b8015610397575b8015610386575b8015610375575b8015610364575b8015610354575b8015610344575b8015610338575b801561032c575b801561031c575b8015610310575b8015610300575b80156102f0575b6102dd5760405160a081016001600160401b038111828210176102c9575f9160809160405262989680815261012c60208201526102586040820152683635c9adc5dea00000606082015201526298968060085561012c600955610258600a55683635c9adc5dea00000600b5560ff19600c5416600c55604051615af090816103f1823960805181818161068c01528181610a60015281816111290152818161164701528181611a8501528181611d2e0152818161214801528181612a9a01528181612bf901526137510152f35b634e487b7160e01b5f52604160045260245ffd5b630732d7b560e51b5f523060045260245ffd5b50600130161515600114156101fc565b50600230161515600114156101f5565b506004301615156101ee565b50600830161515600114156101e7565b506010301615156101e0565b506020301615156101d9565b50604030161515600114156101d2565b50608030161515600114156101cb565b5061010030161515600114156101c4565b5061020030161515600114156101bd565b5061040030161515600114156101b6565b5061080030161515600114156101af565b5061100030161515600114156101a8565b631e4fbdf760e01b5f525f60045260245ffd5b5f80fd5b604051906101c082016001600160401b038111838210176102c95760405256fe60806040526004361015610011575f80fd5b5f3560e01c806321d0ee7014612bd0578063259982e514612a715780632eeba32e146129945780633621ef35146127605780633a798d0a146126eb5780633f4ba83a1461262f57806354f1a9fa14612566578063575e24b4146120815780635c975abb1461203f5780635dc909c114611ef657806368fd6a9c14611e1f5780636c2bbe7e14611d035780636de079d914611c205780636fe7e6eb146119f9578063715018a61461195f5780637380e638146118c65780638456cb59146117f35780638da5cb5b146117a35780639404760a146117495780639f063efc1461161c578063a777368a146115cb578063ab4493ef146113f2578063af1701f014611317578063b47b2fb114611062578063b6a8b0fa1461059f578063ba3332f514610ec8578063be32b3f814610e2a578063c1395f3914610de0578063c4e833ce14610c52578063c653e7ed14610bb8578063cf349b7d14610b56578063d4deede514610a84578063dc4c90d314610a16578063dc98354e1461060a578063de2d1fef146105b9578063e1b4af691461059f578063e5cb01b9146104ce578063e74d5f33146103e4578063eeeb5744146102c15763f2fde38b146101d1575f80fd5b346102bd5760207ffffffffffffffffffffffffffffffffffffffffffffffffffffffffffffffffc3601126102bd5773ffffffffffffffffffffffffffffffffffffffff61021d612d5e565b61022561417e565b1680156102915773ffffffffffffffffffffffffffffffffffffffff5f54827fffffffffffffffffffffffff00000000000000000000000000000000000000008216175f55167f8be0079c531659141344cd1fd0a4f28419497f9722a3daafe3b4186f6b6457e05f80a3005b7f1e4fbdf7000000000000000000000000000000000000000000000000000000005f525f60045260245ffd5b5f80fd5b346102bd5760207ffffffffffffffffffffffffffffffffffffffffffffffffffffffffffffffffc3601126102bd576102f86138c9565b506004355f52600360205261030f60405f20613609565b6040516020815261018081016103296020830184516130c4565b6020830151906101606040840152815180915260206101a084019201905f5b8181106103ce5750505073ffffffffffffffffffffffffffffffffffffffff61014084604085960151606086015260608101516080860152608081015160a086015260a081015160c086015260c081015160e086015260e08101516101008601526101008101511515610120860152610120810151828601520151166101608301520390f35b8251845260209384019390920191600101610348565b346102bd5760207ffffffffffffffffffffffffffffffffffffffffffffffffffffffffffffffffc3601126102bd5761041b61391b565b506004355f52600460205261010060405f20604051610439816130ee565b8154918282526001810154602083019081526002820154604084019081526003830154606085019081526004840154916080860192835260058501549360a0870194855260e060ff600760068901549860c08b01998a52015416970196151587526040519788525160208801525160408701525160608601525160808501525160a08401525160c083015251151560e0820152f35b346102bd5760207ffffffffffffffffffffffffffffffffffffffffffffffffffffffffffffffffc3601126102bd576004355f52600360205261014060405f2060ff8154169060028101549060038101546004820154600583015460068401549060078501549260ff6008870154169473ffffffffffffffffffffffffffffffffffffffff600a6009890154980154169761056c604051809b6130c4565b60208a015260408901526060880152608087015260a086015260c0850152151560e0840152610100830152610120820152f35b346102bd576105ad36613023565b94939093929192613734565b346102bd575f7ffffffffffffffffffffffffffffffffffffffffffffffffffffffffffffffffc3601126102bd57602073ffffffffffffffffffffffffffffffffffffffff60025416604051908152f35b346102bd5760e07ffffffffffffffffffffffffffffffffffffffffffffffffffffffffffffffffc3601126102bd57610641612d5e565b5060a07fffffffffffffffffffffffffffffffffffffffffffffffffffffffffffffffdc3601126102bd57610674612fe1565b5073ffffffffffffffffffffffffffffffffffffffff7f00000000000000000000000000000000000000000000000000000000000000001633036109ee5760a06106bd366131a1565b206106c66138c9565b6106cf81613957565b815f52600760205260405f205f805260205260405f2060017fffffffffffffffffffffffffffffffffffffffffffffffffffffffffffffff0082541617905561014081015f815261012082019042825261010083019160018352845f52600360205260405f2092845160068110156109805761074b9085613517565b6001840160208601519081519167ffffffffffffffff83116109c15760209061077484846135b5565b01905f5260205f205f5b8381106109ad575050505073ffffffffffffffffffffffffffffffffffffffff92600a9261081a859360408901516002890155606089015160038901556080890151600489015560a0890151600589015560c0890151600689015560e08901516007890155511515600888019060ff7fffffffffffffffffffffffffffffffffffffffffffffffffffffffffffffff0083541691151516179055565b5160098601555116920191167fffffffffffffffffffffffff0000000000000000000000000000000000000000825416179055815f52600560205261086160405f20613b86565b610913604051610870816130ee565b4281526007602082015f8152604083015f8152606084015f8152608085015f815260a08601915f835260c08701935f855260e0880195600187528b5f52600460205260405f209851895551600189015551600288015551600387015551600486015551600585015551600684015551151591019060ff7fffffffffffffffffffffffffffffffffffffffffffffffffffffffffffffff0083541691151516179055565b51906006821015610980577f073d35c649c9a5de29a9b2f9a5ca4e4d1647f3574d8e5a90dc6913e9cd991e3860405f9361094f825180926130c4565b426020820152a360206040517fdc98354e000000000000000000000000000000000000000000000000000000008152f35b7f4e487b71000000000000000000000000000000000000000000000000000000005f52602160045260245ffd5b60019060208451940193818401550161077e565b7f4e487b71000000000000000000000000000000000000000000000000000000005f52604160045260245ffd5b7fae18210a000000000000000000000000000000000000000000000000000000005f5260045ffd5b346102bd575f7ffffffffffffffffffffffffffffffffffffffffffffffffffffffffffffffffc3601126102bd57602060405173ffffffffffffffffffffffffffffffffffffffff7f0000000000000000000000000000000000000000000000000000000000000000168152f35b346102bd5760207ffffffffffffffffffffffffffffffffffffffffffffffffffffffffffffffffc3601126102bd576004355f815f526005602052600e60405f20015491610e108301809311610b29576020924211610b0f575b7f88147f7b595236b2e9475cd783a32248246284b6f19968345881134be8017d5c83604051848152a2604051908152f35b8091505f526005825242600e60405f200155600190610ade565b7f4e487b71000000000000000000000000000000000000000000000000000000005f52601160045260245ffd5b346102bd575f7ffffffffffffffffffffffffffffffffffffffffffffffffffffffffffffffffc3601126102bd5760a0600854600954600a54600b549060ff600c54169260405194855260208501526040840152606083015215156080820152f35b346102bd5760207ffffffffffffffffffffffffffffffffffffffffffffffffffffffffffffffffc3601126102bd576004355f52600460205261010060405f208054906001810154906002810154600382015460048301549060058401549260ff600760068701549601541695604051978852602088015260408701526060860152608085015260a084015260c0830152151560e0820152f35b346102bd575f7ffffffffffffffffffffffffffffffffffffffffffffffffffffffffffffffffc3601126102bd575f6101a0604051610c90816130d1565b8281528260208201528260408201528260608201528260808201528260a08201528260c08201528260e0820152826101008201528261012082015282610140820152826101608201528261018082015201526101c06020604051610cf3816130d1565b60018152818101906001825260408101600181526060820160018152608083016001815260a084016001815260c085016001815260e0860190600182526101008701925f84526101208801945f8652610140890196600188526101608a01985f8a526101a06101808c019b60018d52019b60018d526040519d8e916001835251151591015251151560408d015251151560608c015251151560808b015251151560a08a015251151560c089015251151560e08801525115156101008701525115156101208601525115156101408501525115156101608401525115156101808301525115156101a0820152f35b346102bd5760207ffffffffffffffffffffffffffffffffffffffffffffffffffffffffffffffffc3601126102bd576040610e1c60043561379f565b825191151582526020820152f35b346102bd5760207ffffffffffffffffffffffffffffffffffffffffffffffffffffffffffffffffc3601126102bd576004358015158091036102bd5760207fb8a34678623c94d0d3977ce6d4db867e7e96ffd365f2c0f677563f8dddd4c84091610e9261417e565b7fffffffffffffffffffffffffffffffffffffffffffffffffffffffffffffff00600c541660ff821617600c55604051908152a1005b346102bd5760607ffffffffffffffffffffffffffffffffffffffffffffffffffffffffffffffffc3601126102bd576040600435602435610f07613014565b50815f526003602052825f2091610f2460ff6008850154166132f7565b5a815f526005602052610f43855f20610f3c86613609565b8585614236565b5090949015610fa857507f76359e4798ebdcf6a01e06cdb862e134e103026a9daa182f6158094c0edf595b90610f7c85915b5a906136f0565b86519485526020850182905260408501919091526060840181905292608090a282519182526020820152f35b9350815f526005602052610fc8855f20610fc186613609565b8585614675565b90949015611028575083610f7c7f76359e4798ebdcf6a01e06cdb862e134e103026a9daa182f6158094c0edf595b92847f45c94980872410b4e33a0ae07e97cb9ffa083617beb9d3ddd888c54fc9392391602089958b51908152a2610f75565b610f7c94509061105a7f76359e4798ebdcf6a01e06cdb862e134e103026a9daa182f6158094c0edf595b9285856144e3565b948591610f75565b346102bd576101607ffffffffffffffffffffffffffffffffffffffffffffffffffffffffffffffffc3601126102bd5761109a612d5e565b5060a07fffffffffffffffffffffffffffffffffffffffffffffffffffffffffffffffdc3601126102bd5760607fffffffffffffffffffffffffffffffffffffffffffffffffffffffffffffff3c3601126102bd576101443567ffffffffffffffff81116102bd57611110903690600401612da2565b505073ffffffffffffffffffffffffffffffffffffffff7f00000000000000000000000000000000000000000000000000000000000000001633036109ee5760a061115a366131a1565b2060e435906111676135fa565b604080516020810184815291810185905291151560f81b60608084019190915242606184015232901b7fffffffffffffffffffffffffffffffffffffffff000000000000000000000000166081830152906111ed81609581015b037fffffffffffffffffffffffffffffffffffffffffffffffffffffffffffffffe08101835282613160565b519020805f52600d60205260ff600260405f20015416611270575b505f52600460205260405f20905f81135f14611262575b61122e60048301918254613388565b9055429055604080517fb47b2fb10000000000000000000000000000000000000000000000000000000081525f6020820152f35b61126b9061335c565b61121f565b5f83131561130557816112a7845b825f52600360205260405f2090835f5260056020526112a060405f2092613609565b9084614675565b6112b3575b5050611208565b60207f45c94980872410b4e33a0ae07e97cb9ffa083617beb9d3ddd888c54fc939239191604051908152a25f52600d6020525f60036040822082815582600182015582600282015501558281816112ac565b816112a76113128561335c565b61127e565b346102bd5760607ffffffffffffffffffffffffffffffffffffffffffffffffffffffffffffffffc3601126102bd57600435611351612d3b565b907fa012a411f04c4cdf88600bb5b18d226c7c6a42234c7c909ebdbef28415a0085b602073ffffffffffffffffffffffffffffffffffffffff611392613014565b9461139b61417e565b845f526007835260405f208282165f5283526113e58660405f209060ff7fffffffffffffffffffffffffffffffffffffffffffffffffffffffffffffff0083541691151516179055565b60405195151586521693a3005b346102bd5760407ffffffffffffffffffffffffffffffffffffffffffffffffffffffffffffffffc3601126102bd5760043561142c612d3b565b815f52600760205260405f2073ffffffffffffffffffffffffffffffffffffffff33165f5260205261146460ff60405f205416613395565b815f52600760205260405f2073ffffffffffffffffffffffffffffffffffffffff33165f5260205260405f207fffffffffffffffffffffffffffffffffffffffffffffffffffffffffffffff008154169055815f52600760205260405f2073ffffffffffffffffffffffffffffffffffffffff82165f5260205260405f2060017fffffffffffffffffffffffffffffffffffffffffffffffffffffffffffffff00825416179055815f526003602052600a60405f200173ffffffffffffffffffffffffffffffffffffffff82167fffffffffffffffffffffffff0000000000000000000000000000000000000000825416179055817fa012a411f04c4cdf88600bb5b18d226c7c6a42234c7c909ebdbef28415a0085b602073ffffffffffffffffffffffffffffffffffffffff60405194600186521693a3604051905f82527fa012a411f04c4cdf88600bb5b18d226c7c6a42234c7c909ebdbef28415a0085b60203393a3005b346102bd575f7ffffffffffffffffffffffffffffffffffffffffffffffffffffffffffffffffc3601126102bd57602073ffffffffffffffffffffffffffffffffffffffff60015416604051908152f35b346102bd5761162a36612f10565b50505050915073ffffffffffffffffffffffffffffffffffffffff7f00000000000000000000000000000000000000000000000000000000000000001633036109ee5760a061169b7f1c8eba211f1d67fbc72d0cbe9bf71ffc31f6448668fd19b1dc8298dbd679137692369061326d565b2091825f5260046020526040805f209101355f81135f1461172a576116c560018301918254613388565b90555b4280825560028201546003830154600190930154604080519283526020830194909452928101929092526060820152608090a2604080517f9f063efc0000000000000000000000000000000000000000000000000000000081525f6020820152f35b6117339061335c565b611742600183019182546136f0565b90556116c8565b346102bd5760407ffffffffffffffffffffffffffffffffffffffffffffffffffffffffffffffffc3601126102bd576004355f52600560205260406117956024356008835f2001614622565b825191825215156020820152f35b346102bd575f7ffffffffffffffffffffffffffffffffffffffffffffffffffffffffffffffffc3601126102bd57602073ffffffffffffffffffffffffffffffffffffffff5f5416604051908152f35b346102bd575f7ffffffffffffffffffffffffffffffffffffffffffffffffffffffffffffffffc3601126102bd5761182961417e565b5f5460ff8160a01c1661189e577fffffffffffffffffffffff00ffffffffffffffffffffffffffffffffffffffff740100000000000000000000000000000000000000009116175f557f62e78cea01bee320cd4e420270b5ea74000d11b0c9f74754ebdbfc544b05a2586020604051338152a1005b7fd93c0665000000000000000000000000000000000000000000000000000000005f5260045ffd5b346102bd5760607ffffffffffffffffffffffffffffffffffffffffffffffffffffffffffffffffc3601126102bd576024356044356004355f52600360205260405f2090828082115f1461194f5761191d916136f0565b915b6127108302928084046127101490151715610b29576119426006916020946136fd565b9101541015604051908152f35b90611959916136f0565b9161191f565b346102bd575f7ffffffffffffffffffffffffffffffffffffffffffffffffffffffffffffffffc3601126102bd5761199561417e565b5f73ffffffffffffffffffffffffffffffffffffffff81547fffffffffffffffffffffffff000000000000000000000000000000000000000081168355167f8be0079c531659141344cd1fd0a4f28419497f9722a3daafe3b4186f6b6457e08280a3005b346102bd576101007ffffffffffffffffffffffffffffffffffffffffffffffffffffffffffffffffc3601126102bd57611a31612d5e565b5060a07fffffffffffffffffffffffffffffffffffffffffffffffffffffffffffffffdc3601126102bd57611a64612fe1565b50611a6d613004565b5073ffffffffffffffffffffffffffffffffffffffff7f00000000000000000000000000000000000000000000000000000000000000001633036109ee5760a0611ab6366131a1565b20805f52600360205260ff600860405f2001541615611bc257805f52600460205260ff600760405f2001541615611b6457805f5260036020527f19d700c074d731c55f353d2a6d1066811b71306f1dfe67072a90b7eb1ee09bcd6040611b2d5a845f52600560205242600e845f2001555a906136f0565b815190600a82526020820152a260206040517f6fe7e6eb000000000000000000000000000000000000000000000000000000008152f35b60646040517f08c379a000000000000000000000000000000000000000000000000000000000815260206004820152601b60248201527f4375727665207374617465206e6f7420696e697469616c697a656400000000006044820152fd5b60646040517f08c379a000000000000000000000000000000000000000000000000000000000815260206004820152601e60248201527f4375727665206e6f742070726f7065726c7920696e697469616c697a656400006044820152fd5b346102bd5760607ffffffffffffffffffffffffffffffffffffffffffffffffffffffffffffffffc3601126102bd57600435805f52600760205260405f2073ffffffffffffffffffffffffffffffffffffffff33165f5260205260ff60405f20541615611ca5575f526005602052611ca3604435602435600860405f20016145a9565b005b60646040517f08c379a000000000000000000000000000000000000000000000000000000000815260206004820152600e60248201527f4e6f7420617574686f72697a65640000000000000000000000000000000000006044820152fd5b346102bd57611d1136612f10565b50505050915073ffffffffffffffffffffffffffffffffffffffff7f00000000000000000000000000000000000000000000000000000000000000001633036109ee5760a0611d827f1c8eba211f1d67fbc72d0cbe9bf71ffc31f6448668fd19b1dc8298dbd679137692369061326d565b2091825f5260046020526040805f209101355f8112611dff575b504280825560028201546003830154600190930154604080519283526020830194909452928101929092526060820152608090a2604080517f6c2bbe7e0000000000000000000000000000000000000000000000000000000081525f6020820152f35b611e089061335c565b611e17600183019182546136f0565b905583611d9c565b346102bd5760207ffffffffffffffffffffffffffffffffffffffffffffffffffffffffffffffffc3601126102bd57600435805f52600760205260405f2073ffffffffffffffffffffffffffffffffffffffff33165f52602052611e8960ff60405f205416613395565b805f526003602052600860405f20017fffffffffffffffffffffffffffffffffffffffffffffffffffffffffffffff0081541690555f526004602052600760405f20017fffffffffffffffffffffffffffffffffffffffffffffffffffffffffffffff0081541690555f80f35b346102bd57611f0436612e9b565b815f52600760205260405f2073ffffffffffffffffffffffffffffffffffffffff33165f52602052611f3c60ff60405f205416613395565b815f526003602052611f5760ff600860405f200154166132f7565b611f69611f6436836133fa565b613957565b815f52600360205260405f2090611f83602082018261354e565b90600184019067ffffffffffffffff83116109c157611fa283836135b5565b905f5260205f205f5b83811061202b578660ff8760e088606081013560038401556080810135600484015560c0810135600684015501356007820155426009820155541690611ff460405180936130c4565b4260208301527f073d35c649c9a5de29a9b2f9a5ca4e4d1647f3574d8e5a90dc6913e9cd991e3860403393a3602060405160018152f35b600190602084359401938184015501611fab565b346102bd575f7ffffffffffffffffffffffffffffffffffffffffffffffffffffffffffffffffc3601126102bd57602060ff5f5460a01c166040519015158152f35b346102bd576101407ffffffffffffffffffffffffffffffffffffffffffffffffffffffffffffffffc3601126102bd576120b9612d5e565b5060a07fffffffffffffffffffffffffffffffffffffffffffffffffffffffffffffffdc3601126102bd5760607fffffffffffffffffffffffffffffffffffffffffffffffffffffffffffffff3c3601126102bd576101243567ffffffffffffffff81116102bd5761212f903690600401612da2565b505073ffffffffffffffffffffffffffffffffffffffff7f00000000000000000000000000000000000000000000000000000000000000001633036109ee5760a0612179366131a1565b205a60ff600c541661253e57815f52600360205260405f20906121a260ff6008840154166132f7565b60e435906121ae6135fa565b604080516020810187815291810185905291151560f81b60608084019190915242606184015232901b7fffffffffffffffffffffffffffffffffffffffff0000000000000000000000001660818301529061220c81609581016111c1565b519020925f831391821561252f5783915b865f52600560205261223c60405f2061223583613609565b858a614236565b97919290600854808a1161250057501561245c575050925b61225c6135fa565b505f85121561244a57670de0b6b3a764000061228061227a8761335c565b866135a2565b0560801b95875f52600360205262ffffff600a600460405f2001540416610bb8019062ffffff8211610b295762ffffff620186a0819204169116019462ffffff8611610b2957875f52600460205260405f20915f1461243c575b6122e26135fa565b156123b6579261237f61235b7f76359e4798ebdcf6a01e06cdb862e134e103026a9daa182f6158094c0edf595b9484670de0b6b3a764000061233e8a60609e9a600262ffffff9e9d9a01612337828254613388565b90556135a2565b0461234e600383019182546136f0565b90555b4290555a906136f0565b83604051948594859094939260609260808301968352602083015260408201520152565b0390a2604051927f575e24b40000000000000000000000000000000000000000000000000000000084526020840152166040820152f35b9493909692600388016123ca878254613388565b9055670de0b6b3a7640000860295808704670de0b6b3a76400001490151715610b295761237f61235b7f76359e4798ebdcf6a01e06cdb862e134e103026a9daa182f6158094c0edf595b9460609a6124268662ffffff9b6136fd565b612435600283019182546136f0565b9055612351565b6124459061335c565b6122da565b670de0b6b3a76400006122808661227a565b61246a9195925084896144e3565b9360405190608082019082821067ffffffffffffffff8311176109c1576003916040525f83526124f76020840142815260408501906001825260608601938a85525f52600d60205260405f2095518655516001860155511515600285019060ff7fffffffffffffffffffffffffffffffffffffffffffffffffffffffffffffff0083541691151516179055565b51910155612254565b897f1935f531000000000000000000000000000000000000000000000000000000005f5260045260245260445ffd5b6125388461335c565b9161221d565b7f19e1bef5000000000000000000000000000000000000000000000000000000005f5260045ffd5b346102bd5760a07ffffffffffffffffffffffffffffffffffffffffffffffffffffffffffffffffc3601126102bd5761259d61417e565b6004358060085560243590816009556044359081600a55606435600b5560843591821515938484036102bd577f777546a879cb25b73768dd65ed9b4b71157b11e909ba982b079476618e04414b946060945060ff7fffffffffffffffffffffffffffffffffffffffffffffffffffffffffffffff00600c5416911617600c5560405192835260208301526040820152a1005b346102bd575f7ffffffffffffffffffffffffffffffffffffffffffffffffffffffffffffffffc3601126102bd5761266561417e565b5f5460ff8160a01c16156126c3577fffffffffffffffffffffff00ffffffffffffffffffffffffffffffffffffffff165f557f5db9ee0a495bf2e6ff9c91a7834c1ba4fdd244a5e8aa4e537bd38aeae4b073aa6020604051338152a1005b7f8dfc202b000000000000000000000000000000000000000000000000000000005f5260045ffd5b346102bd5760407ffffffffffffffffffffffffffffffffffffffffffffffffffffffffffffffffc3601126102bd57612722612d3b565b6004355f52600760205273ffffffffffffffffffffffffffffffffffffffff60405f2091165f52602052602060ff60405f2054166040519015158152f35b346102bd5761276e36612e9b565b90805f52600760205260405f2073ffffffffffffffffffffffffffffffffffffffff33165f526020526127a760ff60405f205416613395565b6127b4611f6436846133fa565b805f52600360205260405f2082359260068410156102bd576127d68483613517565b600182016127e7602083018361354e565b919067ffffffffffffffff83116109c15761280283836135b5565b905f5260205f205f5b838110612980575050505060408101356002830155606081013560038301556080810135600483015560a0810135600583015560c0810135600683015560e081013560078301556101008101359081151582036102bd5761289f826101409350600885019060ff7fffffffffffffffffffffffffffffffffffffffffffffffffffffffffffffff0083541691151516179055565b610120810135600984015501359073ffffffffffffffffffffffffffffffffffffffff821682036102bd57600a908101805473ffffffffffffffffffffffffffffffffffffffff939093167fffffffffffffffffffffffff00000000000000000000000000000000000000009384161790555f838152600360209081526040808320938401805433961695909517909455426009840155600890920180547fffffffffffffffffffffffffffffffffffffffffffffffffffffffffffffff0016600117905560059091522061297390613b86565b611ff460405180936130c4565b60019060208435940193818401550161280b565b346102bd5760207ffffffffffffffffffffffffffffffffffffffffffffffffffffffffffffffffc3601126102bd57600435805f52600760205260405f2073ffffffffffffffffffffffffffffffffffffffff33165f526020526129fe60ff60405f205416613395565b805f526003602052600860405f200160017fffffffffffffffffffffffffffffffffffffffffffffffffffffffffffffff008254161790555f526004602052600760405f200160017fffffffffffffffffffffffffffffffffffffffffffffffffffffffffffffff008254161790555f80f35b346102bd57612a7f36612dd0565b5050915073ffffffffffffffffffffffffffffffffffffffff7f00000000000000000000000000000000000000000000000000000000000000001633036109ee57612acd60a091369061326d565b20805f5260036020526040805f2092612aec60ff6008860154166132f7565b0135905f8213612b21575b60206040517f259982e5000000000000000000000000000000000000000000000000000000008152f35b600591612b3c915f526004602052600160405f200154613388565b91015411612b4c57808080612af7565b60846040517f08c379a000000000000000000000000000000000000000000000000000000000815260206004820152602a60248201527f496e73756666696369656e74206c697175696469747920666f7220637572766560448201527f20696e74656772697479000000000000000000000000000000000000000000006064820152fd5b346102bd57612bde36612dd0565b5050915073ffffffffffffffffffffffffffffffffffffffff7f00000000000000000000000000000000000000000000000000000000000000001633036109ee57612c2c60a091369061326d565b2090815f52600360205260405f20915f5260046020526040805f2091612c5860ff6008860154166132f7565b0135905f8212612c8d575b60206040517f21d0ee70000000000000000000000000000000000000000000000000000000008152f35b60056001612c9d612ca99461335c565b92015493015490613388565b1015612cb757808080612c63565b60846040517f08c379a000000000000000000000000000000000000000000000000000000000815260206004820152603160248201527f52656d6f76616c20776f756c6420627265616b206d696e696d756d206c69717560448201527f696469747920726571756972656d656e740000000000000000000000000000006064820152fd5b6024359073ffffffffffffffffffffffffffffffffffffffff821682036102bd57565b6004359073ffffffffffffffffffffffffffffffffffffffff821682036102bd57565b359073ffffffffffffffffffffffffffffffffffffffff821682036102bd57565b9181601f840112156102bd5782359167ffffffffffffffff83116102bd57602083818601950101116102bd57565b906101607ffffffffffffffffffffffffffffffffffffffffffffffffffffffffffffffffc8301126102bd5760043573ffffffffffffffffffffffffffffffffffffffff811681036102bd579160a07fffffffffffffffffffffffffffffffffffffffffffffffffffffffffffffffdc8201126102bd5760249160807fffffffffffffffffffffffffffffffffffffffffffffffffffffffffffffff3c8301126102bd5760c491610144359067ffffffffffffffff82116102bd57612e9791600401612da2565b9091565b9060407ffffffffffffffffffffffffffffffffffffffffffffffffffffffffffffffffc8301126102bd57600435916024359067ffffffffffffffff82116102bd577ffffffffffffffffffffffffffffffffffffffffffffffffffffffffffffffffc82610160920301126102bd5760040190565b906101a07ffffffffffffffffffffffffffffffffffffffffffffffffffffffffffffffffc8301126102bd5760043573ffffffffffffffffffffffffffffffffffffffff811681036102bd579160a07fffffffffffffffffffffffffffffffffffffffffffffffffffffffffffffffdc8201126102bd5760249160807fffffffffffffffffffffffffffffffffffffffffffffffffffffffffffffff3c8301126102bd5760c49161014435916101643591610184359067ffffffffffffffff82116102bd57612e9791600401612da2565b60c4359073ffffffffffffffffffffffffffffffffffffffff821682036102bd57565b60e435908160020b82036102bd57565b6044359081151582036102bd57565b6101207ffffffffffffffffffffffffffffffffffffffffffffffffffffffffffffffffc8201126102bd5760043573ffffffffffffffffffffffffffffffffffffffff811681036102bd579160a07fffffffffffffffffffffffffffffffffffffffffffffffffffffffffffffffdc8301126102bd5760249160c4359160e43591610104359067ffffffffffffffff82116102bd57612e9791600401612da2565b9060068210156109805752565b6101c0810190811067ffffffffffffffff8211176109c157604052565b610100810190811067ffffffffffffffff8211176109c157604052565b60a0810190811067ffffffffffffffff8211176109c157604052565b610160810190811067ffffffffffffffff8211176109c157604052565b6060810190811067ffffffffffffffff8211176109c157604052565b90601f7fffffffffffffffffffffffffffffffffffffffffffffffffffffffffffffffe0910116810190811067ffffffffffffffff8211176109c157604052565b7fffffffffffffffffffffffffffffffffffffffffffffffffffffffffffffffdc60a09101126102bd57604051906131d88261310b565b8160243573ffffffffffffffffffffffffffffffffffffffff811681036102bd57815260443573ffffffffffffffffffffffffffffffffffffffff811681036102bd57602082015260643562ffffff811681036102bd5760408201526084358060020b81036102bd57606082015260a4359073ffffffffffffffffffffffffffffffffffffffff821682036102bd5760800152565b91908260a09103126102bd576040516132858161310b565b809261329081612d81565b825261329e60208201612d81565b6020830152604081013562ffffff811681036102bd5760408301526060810135908160020b82036102bd57608091606084015201359073ffffffffffffffffffffffffffffffffffffffff821682036102bd5760800152565b156132fe57565b60646040517f08c379a000000000000000000000000000000000000000000000000000000000815260206004820152601060248201527f4375727665206e6f7420616374697665000000000000000000000000000000006044820152fd5b7f80000000000000000000000000000000000000000000000000000000000000008114610b29575f0390565b91908201809211610b2957565b1561339c57565b60646040517f08c379a000000000000000000000000000000000000000000000000000000000815260206004820152601960248201527f4e6f7420617574686f72697a65642073747261746567697374000000000000006044820152fd5b919091610160818403126102bd576040519061341582613127565b8193813560068110156102bd578352602082013567ffffffffffffffff81116102bd5782019080601f830112156102bd5781359167ffffffffffffffff83116109c1578260051b90602082019361346f6040519586613160565b84526020808501928201019283116102bd57602001905b82821061350757505050602083015260408101356040830152606081013560608301526080810135608083015260a081013560a083015260c081013560c083015260e081013560e08301526101008101359081151582036102bd5761014061350291819361010086015261012081013561012086015201612d81565b910152565b8135815260209182019101613486565b9060068110156109805760ff7fffffffffffffffffffffffffffffffffffffffffffffffffffffffffffffff008354169116179055565b9035907fffffffffffffffffffffffffffffffffffffffffffffffffffffffffffffffe1813603018212156102bd570180359067ffffffffffffffff82116102bd57602001918160051b360383136102bd57565b81810292918115918404141715610b2957565b906801000000000000000081116109c1578154918181558282106135d857505050565b5f5260205f2091820191015b8181106135ef575050565b5f81556001016135e4565b60c43580151581036102bd5790565b9060405161361681613127565b809260ff8154166006811015610980578252600181016040519081602082549182815201915f5260205f20905f5b8181106136da57505050610140928261367673ffffffffffffffffffffffffffffffffffffffff94600a940382613160565b6020860152600281015460408601526003810154606086015260048101546080860152600581015460a0860152600681015460c0860152600781015460e086015260ff60088201541615156101008601526009810154610120860152015416910152565b8254845260209093019260019283019201613644565b91908203918211610b2957565b8115613707570490565b7f4e487b71000000000000000000000000000000000000000000000000000000005f52601260045260245ffd5b50505050505073ffffffffffffffffffffffffffffffffffffffff7f00000000000000000000000000000000000000000000000000000000000000001633036109ee577f0a85dc29000000000000000000000000000000000000000000000000000000005f5260045ffd5b805f52600360205260405f20905f52600460205260405f209060ff6008820154161580156138ba575b6138b257600160649201546005820154908160011b9180830460021490151715610b2957106138a9575b6103e8600482015411613878575b613812600962015180920154426136f0565b11613820575b604681101591565b7ffffffffffffffffffffffffffffffffffffffffffffffffffffffffffffffff6810190811115613818577f4e487b71000000000000000000000000000000000000000000000000000000005f52601160045260245ffd5b907ffffffffffffffffffffffffffffffffffffffffffffffffffffffffffffffff18101908111610b295790613800565b605091506137f2565b50505f905f90565b5060ff600783015416156137c8565b604051906138d682613127565b5f61014083828152606060208201528260408201528260608201528260808201528260a08201528260c08201528260e082015282610100820152826101208201520152565b60405190613928826130ee565b5f60e0838281528260208201528260408201528260608201528260808201528260a08201528260c08201520152565b60208101515115613b285760608101518015159081613b14575b5015613ab657612710608082015111613a585761138860c0820151116139fa5760a001511561399c57565b60646040517f08c379a000000000000000000000000000000000000000000000000000000000815260206004820152601e60248201527f4d696e206c6971756964697479206d75737420626520706f73697469766500006044820152fd5b60646040517f08c379a000000000000000000000000000000000000000000000000000000000815260206004820152601560248201527f4d617820736c69707061676520746f6f206869676800000000000000000000006044820152fd5b60646040517f08c379a000000000000000000000000000000000000000000000000000000000815260206004820152601a60248201527f566f6c6174696c69747920666163746f7220746f6f20686967680000000000006044820152fd5b60646040517f08c379a000000000000000000000000000000000000000000000000000000000815260206004820152601060248201527f496e76616c6964206c65766572616765000000000000000000000000000000006044820152fd5b68056bc75e2d63100000915011155f613971565b60646040517f08c379a000000000000000000000000000000000000000000000000000000000815260206004820152601860248201527f4e6f20636f656666696369656e74732070726f766964656400000000000000006044820152fd5b613b8e61391b565b50613bf6613b9a6155bb565b60209081604051613bab8282613160565b5f81525f368137613bbf5f6005600161586d565b9060405195869283927f1888debd000000000000000000000000000000000000000000000000000000008452600560048501615553565b03815f73ea30c4b8b44078bbf8a6ef5b9f1ec1626c7848d95af18015614051575f9061414f575b613c7b935082604051613c308282613160565b5f81525f368137613c445f6005600261586d565b9060405196879283927f1888debd000000000000000000000000000000000000000000000000000000008452600560048501615553565b03815f73ea30c4b8b44078bbf8a6ef5b9f1ec1626c7848d95af18015614051575f90614120575b613d00945083604051613cb58282613160565b5f81525f368137613cc95f6005600661586d565b9060405197889283927f1888debd000000000000000000000000000000000000000000000000000000008452600560048501615553565b03815f73ea30c4b8b44078bbf8a6ef5b9f1ec1626c7848d95af1908115614051575f916140ef575b613d86955084604051613d3b8282613160565b5f81525f368137613d4f5f6005601861586d565b9060405198899283927f1888debd000000000000000000000000000000000000000000000000000000008452600560048501615553565b03815f73ea30c4b8b44078bbf8a6ef5b9f1ec1626c7848d95af1928315614051575f936140be575b613e10965085604051613dc18282613160565b5f81525f368137613dd95f600564e8d4a5100061586d565b90604051998a9283927f1888debd000000000000000000000000000000000000000000000000000000008452600560048501615553565b03815f73ea30c4b8b44078bbf8a6ef5b9f1ec1626c7848d95af1948515614051575f9561408d575b613e9a975086604051613e4b8282613160565b5f81525f368137613e635f600564746a52880061586d565b906040519a8b9283927f1888debd000000000000000000000000000000000000000000000000000000008452600560048501615553565b03815f73ea30c4b8b44078bbf8a6ef5b9f1ec1626c7848d95af1968715614051575f9761405c575b613f27985080604051613ed58282613160565b5f81525f368137613ef05f600567ffffffffffffffff61586d565b906040519b8c9283927f1888debd000000000000000000000000000000000000000000000000000000008452600560048501615553565b03815f73ea30c4b8b44078bbf8a6ef5b9f1ec1626c7848d95af1988915614051575f99614002575b507fa3a838c738d39ee86786a04fff8113a7d1a13bbcc6641fd25677f89f9a6892c19060405192613f7f846130ee565b835280830193845260408301948552606083019586526080830196875260a0830197885260c0830198895260e08301998a525a604051908152a151885551600188015551600287015551600386015551600485015551600584015551600683015551600782015561012c600a8201555f600b8201555f600c820155600e42910155565b9080995081813d831161404a575b61401a8183613160565b810103126102bd5751977fa3a838c738d39ee86786a04fff8113a7d1a13bbcc6641fd25677f89f9a6892c1613f4f565b503d614010565b6040513d5f823e3d90fd5b80975088813d8311614086575b6140738183613160565b810103126102bd57613f27975196613ec2565b503d614069565b94508587813d83116140b7575b6140a48183613160565b810103126102bd57613e9a965194613e38565b503d61409a565b92508486813d83116140e8575b6140d58183613160565b810103126102bd57613e10955192613dae565b503d6140cb565b90508385813d8311614119575b6141068183613160565b810103126102bd57613d86945190613d28565b503d6140fc565b508284813d8311614148575b6141368183613160565b810103126102bd57613d009351613ca2565b503d61412c565b508183813d8311614177575b6141658183613160565b810103126102bd57613c7b9251613c1d565b503d61415b565b73ffffffffffffffffffffffffffffffffffffffff5f5416330361419e57565b7f118cdaa7000000000000000000000000000000000000000000000000000000005f523360045260245ffd5b919290825260068310156109805760419260f81b602083015260218201520190565b604051906040820182811067ffffffffffffffff8211176109c157604052601182527f70726963655f63616c63756c6174696f6e0000000000000000000000000000006020830152565b92909391935a918551945f956006811015610980576142a59161429760808a01519261426b60405194859289602085016141ca565b037fffffffffffffffffffffffffffffffffffffffffffffffffffffffffffffffe08101845283613160565b61429f6141ec565b90614723565b956142b0878361478b565b60208101516144c85750614322602080946142eb5f600567ffffffffffffffff604051946142de8787613160565b838652833681371661586d565b9060405193849283927f1888debd000000000000000000000000000000000000000000000000000000008452600560048501615553565b03815f73ea30c4b8b44078bbf8a6ef5b9f1ec1626c7848d95af180156140515783915f91614495575b506143569290614900565b5095600f820196815f5287845260ff60405f20541615614387575b50505050614383919293505a906136f0565b8291565b808115614487575b73ea30c4b8b44078bbf8a6ef5b9f1ec1626c7848d93b156102bd57604051907f0828982700000000000000000000000000000000000000000000000000000000825260048201523360248201525f816044818373ea30c4b8b44078bbf8a6ef5b9f1ec1626c7848d95af1801561405157614466575b50906012929187988261438398995285526040892060017fffffffffffffffffffffffffffffffffffffffffffffffffffffffffffffff00825416179055818952601083018552604089205587520190524260408520558392915f8080614371565b6143839697509061447b5f6012959493613160565b5f979650909192614404565b506144906155bb565b61438f565b809250858092503d83116144c1575b6144ae8183613160565b810103126102bd5751829061435661434b565b503d6144a4565b95505050506144da9193505a906136f0565b90519160019190565b5f52600460205260405f206002810154908115158061456f575b15614553579161452b61453192614525600360049601549361451f85846135a2565b92613388565b906136fd565b906136f0565b91015461271001908161271011610b29576127109161454f916135a2565b0490565b5050605f80820292508115918304141715610b29576064900490565b50600381015415156144fd565b7fffffffffffffffffffffffffffffffffffffffffffffffffffffffffffffffff8114610b295760010190565b5f828152602082815260408083209590955560018301905292909220429081905590919061460e576004016145de815461457c565b90555b7fd0a76a299d0165bb2dcf39b258c7d6128bc849353fdcc3f9b2813980304c53cd60205a604051908152a2565b60030161461b815461457c565b90556145e1565b905f815f526001830160205260405f2054801515908161465c575b501561465457505f5260205260405f205490600190565b929150505f90565b61466c9150600285015490613388565b4211155f61463d565b825193949391926006831015610980576146a39361426b6080614297930151604051958693602085016141ca565b6146ad818461478b565b9060208201938451151580614717575b6146cc575b5050519151151590565b600f918351815f526011830160205260405f20555f520160205260405f207fffffffffffffffffffffffffffffffffffffffffffffffffffffffffffffff0081541690555f806146c2565b506040830151156146bd565b916020916040836147859382519586948186019889528051918291018587015e8401908382015f8152815193849201905e01015f8152037fffffffffffffffffffffffffffffffffffffffffffffffffffffffffffffffe08101835282613160565b51902090565b60405161479781613144565b5f81525f60208201525f604082015250815f52600f810160205260ff60405f205416156148f257815f526010810160205260405f205491604051927f458693c9000000000000000000000000000000000000000000000000000000008452600484015260408360248173ea30c4b8b44078bbf8a6ef5b9f1ec1626c7848d95afa8015614051575f935f916148ae575b501561485757505067ffffffffffffffff6040519161484483613144565b168152600160208201525f604082015290565b601192505f520160205260405f20548015155f1461488f576040519061487c82613144565b8152600160208201526001604082015290565b5060405161489c81613144565b5f81525f60208201525f604082015290565b9350506040833d6040116148ea575b816148ca60409383613160565b810103126102bd57602083519301519283151584036102bd57925f614826565b3d91506148bd565b505060405161489c81613144565b929091925a83516006811015610980576060850151608086015161012087015173ffffffffffffffffffffffffffffffffffffffff61014089015116916040519361494f6020860180976130c4565b60408501526060840152608083015260a082015260a0815261497260c082613160565b5190209160088601956149858488614622565b61540057508551600681101561098057614d76575060208501600281515110614cf2576149cb6149d0926149c46149bc8451615458565b519351615492565b51926156e7565b6157bd565b915b602085018051805191949160058110614ce1577ffffffffffffffffffffffffffffffffffffffffffffffffffffffffffffffffe8101908111610b2957614a18916154b2565b51935180517fffffffffffffffffffffffffffffffffffffffffffffffffffffffffffffffff8101908111610b2957614a50916154b2565b519380828015614cd1575b8115614cbc575b614ae89060405193614a75606086613160565b6002855260409586366020880137614a8c86615458565b52614a9685615492565b526020809460405190614aa98383613160565b5f82525f36813760405194859283927f1888debd000000000000000000000000000000000000000000000000000000008452601260056004860161558b565b03815f73ea30c4b8b44078bbf8a6ef5b9f1ec1626c7848d95af180156140515784925f91614c89575b50614bab93614b2192909161595b565b9387858615614c7b575b8915614c6b575b60405192614b41606085613160565b600284523685850137614b5383615458565b52614b5d82615492565b5260405190614b6c8383613160565b5f82525f36813760405193849283927f1888debd000000000000000000000000000000000000000000000000000000008452601360056004860161558b565b03815f73ea30c4b8b44078bbf8a6ef5b9f1ec1626c7848d95af1918215614051575f92614c35575b5050614bf294610f75939282614be9935061595b565b905b81976145a9565b91516006811015610980577f54077aec49c06c2c38b7f9323309e25774efc92d53213c737a1f083fe32c5e3160606040518581525f6020820152426040820152a2565b90809250819493943d8311614c64575b614c4f8183613160565b810103126102bd575190919084610f75614bd3565b503d614c45565b9050614c756155bb565b90614b32565b50614c846155bb565b614b2b565b8381939492503d8311614cb5575b614ca18183613160565b810103126102bd5751839190614b21614b11565b503d614c97565b9150614ae8614cc96155bb565b929050614a62565b9250614cdb6155bb565b92614a5b565b50614bf29450610f75929050614beb565b60846040517f08c379a000000000000000000000000000000000000000000000000000000000815260206004820152602160248201527f4c696e656172206375727665206e65656473203220636f656666696369656e7460448201527f73000000000000000000000000000000000000000000000000000000000000006064820152fd5b908551600681101561098057600103614eb7576020860190600282515110614e3357614dd392614dc7614dc1614dcd93614dbb614db38751615458565b519651615492565b516156e7565b916154c6565b90615797565b906156e7565b5a7f9e7156ca893a42d4569f3b5877d3615deb2ee855bfac2cbf1b597ed68df1fcdf6040600781517f666173744578700000000000000000000000000000000000000000000000000081522092815190600382526020820152a2916149d2565b60846040517f08c379a000000000000000000000000000000000000000000000000000000000815260206004820152602660248201527f4578706f6e656e7469616c206375727665206e65656473203220636f6566666960448201527f6369656e747300000000000000000000000000000000000000000000000000006064820152fd5b85516006811015610980576002036150215760208601600381515110614f9d57614f3d92614f37614f21614f15614f0f856149cb614ef8614dcd9851615458565b51986149c4614f078451615492565b5193516154a2565b936154c6565b92602084015190615637565b916040614f2e84806156e7565b910151906158ab565b90615637565b5a7f9e7156ca893a42d4569f3b5877d3615deb2ee855bfac2cbf1b597ed68df1fcdf6040600681517f666173744c6e000000000000000000000000000000000000000000000000000081522092815190600282526020820152a2916149d2565b60846040517f08c379a000000000000000000000000000000000000000000000000000000000815260206004820152602660248201527f4c6f6761726974686d6963206375727665206e65656473203320636f6566666960448201527f6369656e747300000000000000000000000000000000000000000000000000006064820152fd5b90855160068110156109805760030361511457506020850190600382515110615090576149cb8261508461505861508a9551615458565b519361507e61507261506a8551615492565b5194516154a2565b5195614dcd83806156e7565b926156e7565b906157bd565b916149d2565b60846040517f08c379a000000000000000000000000000000000000000000000000000000000815260206004820152602560248201527f506f6c796e6f6d69616c206375727665206e65656473203320636f656666696360448201527f69656e74730000000000000000000000000000000000000000000000000000006064820152fd5b9085516006811015610980576004036153ca57602086016003815151106153465761518561517b61517261516884614dcd61515261518b9751615458565b5197615161614f078451615492565b5190615637565b6005870154615637565b614dc7866154c6565b60018501546157bd565b926154c6565b80518390811561532f575b90816152229215615321575b604051956151b1606088613160565b6002875260403660208901376151c687615458565b526151d086615492565b5260208095604051906151e38383613160565b5f82525f36813760405194859283927f1888debd000000000000000000000000000000000000000000000000000000008452601860056004860161558b565b03815f73ea30c4b8b44078bbf8a6ef5b9f1ec1626c7848d95af1918215614051575f926152ee575b5061526860e0916152636152719660a0870151906156e7565b6158ab565b9201519061595b565b907f9e7156ca893a42d4569f3b5877d3615deb2ee855bfac2cbf1b597ed68df1fcdf60405a81517f7369676d6f6964000000000000000000000000000000000000000000000000009052815160038152938401527fe8e1a8fe34ef410f767d174c28d96fecf2f45452d1b77587a7f11369107bb4f892a2916149d2565b9391508484813d831161531a575b6153068183613160565b810103126102bd579251909261526861524a565b503d6152fc565b5061532a6155bb565b6151a2565b93506152229061533d6155bb565b94909150615196565b60846040517f08c379a000000000000000000000000000000000000000000000000000000000815260206004820152602260248201527f5369676d6f6964206375727665206e65656473203320636f656666696369656e60448201527f74730000000000000000000000000000000000000000000000000000000000006064820152fd5b85516006811015610980577f15151e2e000000000000000000000000000000000000000000000000000000005f5260045260245ffd5b94959650505061541291505a906136f0565b92516006811015610980577f54077aec49c06c2c38b7f9323309e25774efc92d53213c737a1f083fe32c5e31606060405186815260016020820152426040820152a29190565b8051156154655760200190565b7f4e487b71000000000000000000000000000000000000000000000000000000005f52603260045260245ffd5b8051600110156154655760400190565b8051600210156154655760600190565b80518210156154655760209160051b010190565b906040516154d3816130ee565b60e0600782948054845260018101546020850152600281015460408501526003810154606085015260048101546080850152600581015460a0850152600681015460c08501520154910152565b90602080835192838152019201905f5b81811061553d5750505090565b8251845260209384019390920191600101615530565b9161557a9060ff6155889593168452601a6020850152608060408501526080840190615520565b916060818403910152615520565b90565b9293919060ff1683526020811015610980576155889361557a916020850152608060408501526080840190615520565b60206155e1816040516155ce8282613160565b5f81525f3681376142eb5f60058161586d565b03815f73ea30c4b8b44078bbf8a6ef5b9f1ec1626c7848d95af1918215614051575f9261560d57505090565b90809250813d8311615630575b6156248183613160565b810103126102bd575190565b503d61561a565b9081156156d7575b80156156c9575b60405191615655606084613160565b60028352604036602085013761566a83615458565b5261567482615492565b526155e1602080926040519061568a8383613160565b5f82525f36813760405193849283927f1888debd000000000000000000000000000000000000000000000000000000008452600760056004860161558b565b506156d26155bb565b615646565b90506156e16155bb565b9061563f565b908115615787575b8015615779575b60405191615705606084613160565b60028352604036602085013761571a83615458565b5261572482615492565b526155e1602080926040519061573a8383613160565b5f82525f36813760405193849283927f1888debd000000000000000000000000000000000000000000000000000000008452600f60056004860161558b565b506157826155bb565b6156f6565b90506157916155bb565b906156ef565b906149cb6155889260206157b96157ae83806156e7565b6040860151906158ab565b9301515b90811561585d575b801561584f575b604051916157db606084613160565b6002835260403660208501376157f083615458565b526157fa82615492565b526155e160208092604051906158108383613160565b5f82525f36813760405193849283927f1888debd000000000000000000000000000000000000000000000000000000008452600860056004860161558b565b506158586155bb565b6157cc565b90506158676155bb565b906157c5565b91906040519261587e608085613160565b60038452606036602086013761589384615458565b5261589d83615492565b526158a7826154a2565b5290565b90811561594b575b801561593d575b604051916158c9606084613160565b6002835260403660208501376158de83615458565b526158e882615492565b526155e160208092604051906158fe8383613160565b5f82525f36813760405193849283927f1888debd000000000000000000000000000000000000000000000000000000008452600d60056004860161558b565b506159466155bb565b6158ba565b90506159556155bb565b906158b3565b91908215615a33575b61597a928115615a23575b8215615a135761586d565b602090816159e36040519261598f8385613160565b5f84525f3681376155e160405194859384937f1888debd0000000000000000000000000000000000000000000000000000000085526005600486015260046024860152608060448601526084850190615520565b907ffffffffffffffffffffffffffffffffffffffffffffffffffffffffffffffffc848303016064850152615520565b9150615a1d6155bb565b9161586d565b9050615a2d6155bb565b9061596f565b615a909250602080604051615a488282613160565b5f81525f368137615a5a5f808061586d565b9060405196879283927f1888debd0000000000000000000000000000000000000000000000000000000084525f60048501615553565b03815f73ea30c4b8b44078bbf8a6ef5b9f1ec1626c7848d95af1908115614051575f91615ac0575b509250615964565b905083813d8311615ae9575b615ad68183613160565b810103126102bd5761597a92515f615ab8565b503d615acc56","linkReferences":{}},"methodIdentifiers":{"afterAddLiquidity(address,(address,address,uint24,int24,address),(int24,int24,int256,bytes32),int256,int256,bytes)":"9f063efc","afterDonate(address,(address,address,uint24,int24,address),uint256,uint256,bytes)":"e1b4af69","afterInitialize(address,(address,address,uint24,int24,address),uint160,int24)":"6fe7e6eb","afterRemoveLiquidity(address,(address,address,uint24,int24,address),(int24,int24,int256,bytes32),int256,int256,bytes)":"6c2bbe7e","afterSwap(address,(address,address,uint24,int24,address),(bool,int256,uint160),int256,bytes)":"b47b2fb1","authorizeStrategist(bytes32,address,bool)":"af1701f0","authorizedStrategists(bytes32,address)":"3a798d0a","beforeAddLiquidity(address,(address,address,uint24,int24,address),(int24,int24,int256,bytes32),bytes)":"259982e5","beforeDonate(address,(address,address,uint24,int24,address),uint256,uint256,bytes)":"b6a8b0fa","beforeInitialize(address,(address,address,uint24,int24,address),uint160)":"dc98354e","beforeRemoveLiquidity(address,(address,address,uint24,int24,address),(int24,int24,int256,bytes32),bytes)":"21d0ee70","beforeSwap(address,(address,address,uint24,int24,address),(bool,int256,uint160),bytes)":"575e24b4","calculateCustomPrice(bytes32,uint256,bool)":"ba3332f5","checkCurveHealth(bytes32)":"c1395f39","clearExpiredCache(bytes32)":"d4deede5","curveStates(bytes32)":"c653e7ed","darkPoolEngine()":"a777368a","emergencyPause(bytes32)":"68fd6a9c","getCachedResult(bytes32,bytes32)":"9404760a","getCurveParams(bytes32)":"eeeb5744","getCurveState(bytes32)":"e74d5f33","getHookPermissions()":"c4e833ce","hookConfig()":"cf349b7d","initializeCurve(bytes32,(uint8,uint256[],bytes32,uint256,uint256,uint256,uint256,uint256,bool,uint256,address))":"3621ef35","owner()":"8da5cb5b","pause()":"8456cb59","paused()":"5c975abb","poolCurves(bytes32)":"e5cb01b9","poolManager()":"dc4c90d3","renounceOwnership()":"715018a6","resumeCurve(bytes32)":"2eeba32e","setCachedResult(bytes32,bytes32,uint256)":"6de079d9","setEmergencyMode(bool)":"be32b3f8","strategyWeaver()":"de2d1fef","transferOwnership(address)":"f2fde38b","transferStrategist(bytes32,address)":"ab4493ef","unpause()":"3f4ba83a","updateCurveParameters(bytes32,(uint8,uint256[],bytes32,uint256,uint256,uint256,uint256,uint256,bool,uint256,address))":"5dc909c1","updateHookConfig((uint256,uint256,uint256,uint256,bool))":"54f1a9fa","validateSlippage(bytes32,uint256,uint256)":"7380e638"},"id":1}