{"abi":[{"type":"constructor","inputs":[{"name":"initialOwner","type":"address","internalType":"address"},{"name":"_treasury","type":"address","internalType":"address"}],"stateMutability":"nonpayable"},{"type":"function","name":"MANAGEMENT_FEE_BPS","inputs":[],"outputs":[{"name":"","type":"uint256","internalType":"uint256"}],"stateMutability":"view"},{"type":"function","name":"MAX_ASSETS_PER_PORTFOLIO","inputs":[],"outputs":[{"name":"","type":"uint256","internalType":"uint256"}],"stateMutability":"view"},{"type":"function","name":"MIN_REBALANCE_INTERVAL","inputs":[],"outputs":[{"name":"","type":"uint256","internalType":"uint256"}],"stateMutability":"view"},{"type":"function","name":"PERFORMANCE_FEE_BPS","inputs":[],"outputs":[{"name":"","type":"uint256","internalType":"uint256"}],"stateMutability":"view"},{"type":"function","name":"PRECISION","inputs":[],"outputs":[{"name":"","type":"uint256","internalType":"uint256"}],"stateMutability":"view"},{"type":"function","name":"addInvestment","inputs":[{"name":"tokenId","type":"uint256","internalType":"uint256"},{"name":"amount","type":"uint256","internalType":"uint256"}],"outputs":[],"stateMutability":"nonpayable"},{"type":"function","name":"approve","inputs":[{"name":"to","type":"address","internalType":"address"},{"name":"tokenId","type":"uint256","internalType":"uint256"}],"outputs":[],"stateMutability":"nonpayable"},{"type":"function","name":"authorizeStrategist","inputs":[{"name":"strategist","type":"address","internalType":"address"},{"name":"authorized","type":"bool","internalType":"bool"}],"outputs":[],"stateMutability":"nonpayable"},{"type":"function","name":"authorizedStrategists","inputs":[{"name":"","type":"address","internalType":"address"}],"outputs":[{"name":"","type":"bool","internalType":"bool"}],"stateMutability":"view"},{"type":"function","name":"balanceOf","inputs":[{"name":"owner","type":"address","internalType":"address"}],"outputs":[{"name":"","type":"uint256","internalType":"uint256"}],"stateMutability":"view"},{"type":"function","name":"createPortfolio","inputs":[{"name":"assetAddresses","type":"address[]","internalType":"address[]"},{"name":"encryptedWeights","type":"uint256[]","internalType":"euint64[]"},{"name":"encryptedRebalanceStrategy","type":"bytes32","internalType":"bytes32"},{"name":"investor","type":"address","internalType":"address"},{"name":"initialInvestment","type":"uint256","internalType":"uint256"}],"outputs":[{"name":"tokenId","type":"uint256","internalType":"uint256"}],"stateMutability":"nonpayable"},{"type":"function","name":"executeRebalancing","inputs":[{"name":"tokenId","type":"uint256","internalType":"uint256"}],"outputs":[],"stateMutability":"nonpayable"},{"type":"function","name":"getApproved","inputs":[{"name":"tokenId","type":"uint256","internalType":"uint256"}],"outputs":[{"name":"","type":"address","internalType":"address"}],"stateMutability":"view"},{"type":"function","name":"getPortfolioHoldings","inputs":[{"name":"tokenId","type":"uint256","internalType":"uint256"}],"outputs":[{"name":"assetAddresses","type":"address[]","internalType":"address[]"},{"name":"holdingsArray","type":"tuple[]","internalType":"struct IStrategyWeaver.AssetHolding[]","components":[{"name":"assetAddress","type":"address","internalType":"address"},{"name":"encryptedBalance","type":"uint256","internalType":"euint64"},{"name":"encryptedTargetWeight","type":"uint256","internalType":"euint64"},{"name":"lastUpdate","type":"uint256","internalType":"uint256"}]}],"stateMutability":"view"},{"type":"function","name":"getPortfolioPerformance","inputs":[{"name":"tokenId","type":"uint256","internalType":"uint256"}],"outputs":[{"name":"","type":"tuple","internalType":"struct IStrategyWeaver.PerformanceData","components":[{"name":"encryptedInitialValue","type":"uint256","internalType":"euint64"},{"name":"encryptedCurrentValue","type":"uint256","internalType":"euint64"},{"name":"encryptedHighWaterMark","type":"uint256","internalType":"euint64"},{"name":"totalReturn","type":"uint256","internalType":"uint256"},{"name":"sharpeRatio","type":"uint256","internalType":"uint256"},{"name":"maxDrawdown","type":"uint256","internalType":"uint256"},{"name":"lastUpdate","type":"uint256","internalType":"uint256"}]}],"stateMutability":"view"},{"type":"function","name":"getStrategistPortfolios","inputs":[{"name":"strategist","type":"address","internalType":"address"}],"outputs":[{"name":"","type":"uint256[]","internalType":"uint256[]"}],"stateMutability":"view"},{"type":"function","name":"holdings","inputs":[{"name":"","type":"uint256","internalType":"uint256"},{"name":"","type":"address","internalType":"address"}],"outputs":[{"name":"assetAddress","type":"address","internalType":"address"},{"name":"encryptedBalance","type":"uint256","internalType":"euint64"},{"name":"encryptedTargetWeight","type":"uint256","internalType":"euint64"},{"name":"lastUpdate","type":"uint256","internalType":"uint256"}],"stateMutability":"view"},{"type":"function","name":"isApprovedForAll","inputs":[{"name":"owner","type":"address","internalType":"address"},{"name":"operator","type":"address","internalType":"address"}],"outputs":[{"name":"","type":"bool","internalType":"bool"}],"stateMutability":"view"},{"type":"function","name":"name","inputs":[],"outputs":[{"name":"","type":"string","internalType":"string"}],"stateMutability":"view"},{"type":"function","name":"owner","inputs":[],"outputs":[{"name":"","type":"address","internalType":"address"}],"stateMutability":"view"},{"type":"function","name":"ownerOf","inputs":[{"name":"tokenId","type":"uint256","internalType":"uint256"}],"outputs":[{"name":"","type":"address","internalType":"address"}],"stateMutability":"view"},{"type":"function","name":"pause","inputs":[],"outputs":[],"stateMutability":"nonpayable"},{"type":"function","name":"paused","inputs":[],"outputs":[{"name":"","type":"bool","internalType":"bool"}],"stateMutability":"view"},{"type":"function","name":"performanceData","inputs":[{"name":"","type":"uint256","internalType":"uint256"}],"outputs":[{"name":"encryptedInitialValue","type":"uint256","internalType":"euint64"},{"name":"encryptedCurrentValue","type":"uint256","internalType":"euint64"},{"name":"encryptedHighWaterMark","type":"uint256","internalType":"euint64"},{"name":"totalReturn","type":"uint256","internalType":"uint256"},{"name":"sharpeRatio","type":"uint256","internalType":"uint256"},{"name":"maxDrawdown","type":"uint256","internalType":"uint256"},{"name":"lastUpdate","type":"uint256","internalType":"uint256"}],"stateMutability":"view"},{"type":"function","name":"portfolioCounter","inputs":[],"outputs":[{"name":"","type":"uint256","internalType":"uint256"}],"stateMutability":"view"},{"type":"function","name":"portfolios","inputs":[{"name":"","type":"uint256","internalType":"uint256"}],"outputs":[{"name":"tokenId","type":"uint256","internalType":"uint256"},{"name":"strategist","type":"address","internalType":"address"},{"name":"investor","type":"address","internalType":"address"},{"name":"encryptedRebalanceStrategy","type":"bytes32","internalType":"bytes32"},{"name":"encryptedTotalValue","type":"uint256","internalType":"euint64"},{"name":"creationTime","type":"uint256","internalType":"uint256"},{"name":"lastRebalance","type":"uint256","internalType":"uint256"},{"name":"isActive","type":"bool","internalType":"bool"},{"name":"managementFeePaid","type":"uint256","internalType":"uint256"},{"name":"performanceFeePaid","type":"uint256","internalType":"uint256"}],"stateMutability":"view"},{"type":"function","name":"rebalancingRules","inputs":[{"name":"","type":"uint256","internalType":"uint256"},{"name":"","type":"uint256","internalType":"uint256"}],"outputs":[{"name":"ruleId","type":"uint256","internalType":"uint256"},{"name":"encryptedCondition","type":"bytes32","internalType":"bytes32"},{"name":"encryptedAction","type":"bytes32","internalType":"bytes32"},{"name":"priority","type":"uint256","internalType":"uint256"},{"name":"isActive","type":"bool","internalType":"bool"}],"stateMutability":"view"},{"type":"function","name":"renounceOwnership","inputs":[],"outputs":[],"stateMutability":"nonpayable"},{"type":"function","name":"safeTransferFrom","inputs":[{"name":"from","type":"address","internalType":"address"},{"name":"to","type":"address","internalType":"address"},{"name":"tokenId","type":"uint256","internalType":"uint256"}],"outputs":[],"stateMutability":"nonpayable"},{"type":"function","name":"safeTransferFrom","inputs":[{"name":"from","type":"address","internalType":"address"},{"name":"to","type":"address","internalType":"address"},{"name":"tokenId","type":"uint256","internalType":"uint256"},{"name":"data","type":"bytes","internalType":"bytes"}],"outputs":[],"stateMutability":"nonpayable"},{"type":"function","name":"setApprovalForAll","inputs":[{"name":"operator","type":"address","internalType":"address"},{"name":"approved","type":"bool","internalType":"bool"}],"outputs":[],"stateMutability":"nonpayable"},{"type":"function","name":"strategistPortfolios","inputs":[{"name":"","type":"address","internalType":"address"},{"name":"","type":"uint256","internalType":"uint256"}],"outputs":[{"name":"","type":"uint256","internalType":"uint256"}],"stateMutability":"view"},{"type":"function","name":"supportsInterface","inputs":[{"name":"interfaceId","type":"bytes4","internalType":"bytes4"}],"outputs":[{"name":"","type":"bool","internalType":"bool"}],"stateMutability":"view"},{"type":"function","name":"symbol","inputs":[],"outputs":[{"name":"","type":"string","internalType":"string"}],"stateMutability":"view"},{"type":"function","name":"tokenURI","inputs":[{"name":"tokenId","type":"uint256","internalType":"uint256"}],"outputs":[{"name":"","type":"string","internalType":"string"}],"stateMutability":"view"},{"type":"function","name":"transferFrom","inputs":[{"name":"from","type":"address","internalType":"address"},{"name":"to","type":"address","internalType":"address"},{"name":"tokenId","type":"uint256","internalType":"uint256"}],"outputs":[],"stateMutability":"nonpayable"},{"type":"function","name":"transferOwnership","inputs":[{"name":"newOwner","type":"address","internalType":"address"}],"outputs":[],"stateMutability":"nonpayable"},{"type":"function","name":"treasury","inputs":[],"outputs":[{"name":"","type":"address","internalType":"address"}],"stateMutability":"view"},{"type":"function","name":"unpause","inputs":[],"outputs":[],"stateMutability":"nonpayable"},{"type":"function","name":"withdrawInvestment","inputs":[{"name":"tokenId","type":"uint256","internalType":"uint256"},{"name":"amount","type":"uint256","internalType":"uint256"}],"outputs":[],"stateMutability":"nonpayable"},{"type":"event","name":"Approval","inputs":[{"name":"owner","type":"address","indexed":true,"internalType":"address"},{"name":"approved","type":"address","indexed":true,"internalType":"address"},{"name":"tokenId","type":"uint256","indexed":true,"internalType":"uint256"}],"anonymous":false},{"type":"event","name":"ApprovalForAll","inputs":[{"name":"owner","type":"address","indexed":true,"internalType":"address"},{"name":"operator","type":"address","indexed":true,"internalType":"address"},{"name":"approved","type":"bool","indexed":false,"internalType":"bool"}],"anonymous":false},{"type":"event","name":"InvestmentAdded","inputs":[{"name":"tokenId","type":"uint256","indexed":true,"internalType":"uint256"},{"name":"investor","type":"address","indexed":true,"internalType":"address"},{"name":"amount","type":"uint256","indexed":false,"internalType":"uint256"}],"anonymous":false},{"type":"event","name":"InvestmentWithdrawn","inputs":[{"name":"tokenId","type":"uint256","indexed":true,"internalType":"uint256"},{"name":"investor","type":"address","indexed":true,"internalType":"address"},{"name":"amount","type":"uint256","indexed":false,"internalType":"uint256"}],"anonymous":false},{"type":"event","name":"OwnershipTransferred","inputs":[{"name":"previousOwner","type":"address","indexed":true,"internalType":"address"},{"name":"newOwner","type":"address","indexed":true,"internalType":"address"}],"anonymous":false},{"type":"event","name":"Paused","inputs":[{"name":"account","type":"address","indexed":false,"internalType":"address"}],"anonymous":false},{"type":"event","name":"PerformanceFeeCollected","inputs":[{"name":"tokenId","type":"uint256","indexed":true,"internalType":"uint256"},{"name":"feeAmount","type":"uint256","indexed":false,"internalType":"uint256"},{"name":"strategist","type":"address","indexed":false,"internalType":"address"}],"anonymous":false},{"type":"event","name":"PortfolioCreated","inputs":[{"name":"tokenId","type":"uint256","indexed":true,"internalType":"uint256"},{"name":"strategist","type":"address","indexed":true,"internalType":"address"},{"name":"investor","type":"address","indexed":true,"internalType":"address"},{"name":"assetCount","type":"uint256","indexed":false,"internalType":"uint256"}],"anonymous":false},{"type":"event","name":"PortfolioRebalanced","inputs":[{"name":"tokenId","type":"uint256","indexed":true,"internalType":"uint256"},{"name":"timestamp","type":"uint256","indexed":false,"internalType":"uint256"},{"name":"gasUsed","type":"uint256","indexed":false,"internalType":"uint256"}],"anonymous":false},{"type":"event","name":"StrategistAuthorized","inputs":[{"name":"strategist","type":"address","indexed":true,"internalType":"address"},{"name":"authorized","type":"bool","indexed":false,"internalType":"bool"}],"anonymous":false},{"type":"event","name":"Transfer","inputs":[{"name":"from","type":"address","indexed":true,"internalType":"address"},{"name":"to","type":"address","indexed":true,"internalType":"address"},{"name":"tokenId","type":"uint256","indexed":true,"internalType":"uint256"}],"anonymous":false},{"type":"event","name":"Unpaused","inputs":[{"name":"account","type":"address","indexed":false,"internalType":"address"}],"anonymous":false},{"type":"error","name":"ERC721IncorrectOwner","inputs":[{"name":"sender","type":"address","internalType":"address"},{"name":"tokenId","type":"uint256","internalType":"uint256"},{"name":"owner","type":"address","internalType":"address"}]},{"type":"error","name":"ERC721InsufficientApproval","inputs":[{"name":"operator","type":"address","internalType":"address"},{"name":"tokenId","type":"uint256","internalType":"uint256"}]},{"type":"error","name":"ERC721InvalidApprover","inputs":[{"name":"approver","type":"address","internalType":"address"}]},{"type":"error","name":"ERC721InvalidOperator","inputs":[{"name":"operator","type":"address","internalType":"address"}]},{"type":"error","name":"ERC721InvalidOwner","inputs":[{"name":"owner","type":"address","internalType":"address"}]},{"type":"error","name":"ERC721InvalidReceiver","inputs":[{"name":"receiver","type":"address","internalType":"address"}]},{"type":"error","name":"ERC721InvalidSender","inputs":[{"name":"sender","type":"address","internalType":"address"}]},{"type":"error","name":"ERC721NonexistentToken","inputs":[{"name":"tokenId","type":"uint256","internalType":"uint256"}]},{"type":"error","name":"EnforcedPause","inputs":[]},{"type":"error","name":"ExpectedPause","inputs":[]},{"type":"error","name":"InsufficientBalance","inputs":[]},{"type":"error","name":"InvalidAssetCount","inputs":[]},{"type":"error","name":"InvalidWeightSum","inputs":[]},{"type":"error","name":"OwnableInvalidOwner","inputs":[{"name":"owner","type":"address","internalType":"address"}]},{"type":"error","name":"OwnableUnauthorizedAccount","inputs":[{"name":"account","type":"address","internalType":"address"}]},{"type":"error","name":"PortfolioNotActive","inputs":[]},{"type":"error","name":"PortfolioNotFound","inputs":[]},{"type":"error","name":"RebalanceNotReady","inputs":[]},{"type":"error","name":"ReentrancyGuardReentrantCall","inputs":[]},{"type":"error","name":"SecurityZoneOutOfBounds","inputs":[{"name":"value","type":"int32","internalType":"int32"}]},{"type":"error","name":"UnauthorizedStrategist","inputs":[]}],"bytecode":{"object":"0x6080604052346103e957613bb26040813803918261001c816103ed565b9384928339810103126103e95761003e602061003783610412565b9201610412565b9061004960406103ed565b91601483527f4368696d657261205a4b2d506f7274666f6c696f000000000000000000000000602084015261007e60406103ed565b60048152630435a4b560e41b602082015283519092906001600160401b0381116102fd575f54600181811c911680156103df575b60208210146102df57601f811161037d575b50602094601f821160011461031c579481929394955f92610311575b50508160011b915f199060031b1c1916175f555b82516001600160401b0381116102fd57600154600181811c911680156102f3575b60208210146102df57601f811161027c575b506020601f821160011461021957819293945f9261020e575b50508160011b915f199060031b1c1916176001555b6001600160a01b03169081156101fb57600680546001600160a01b03198116841790915560405192906001600160a01b03167f8be0079c531659141344cd1fd0a4f28419497f9722a3daafe3b4186f6b6457e05f80a360017f9b779b17422d0df92223018b32b4d1fa46e071723d6817e2486d003becc55f0055600d80546001600160a01b0319166001600160a01b039290921691909117905561378b90816104278239f35b631e4fbdf760e01b5f525f60045260245ffd5b015190505f80610140565b601f1982169060015f52805f20915f5b8181106102645750958360019596971061024c575b505050811b01600155610155565b01515f1960f88460031b161c191690555f808061023e565b9192602060018192868b015181550194019201610229565b60015f527fb10e2d527612073b26eecdfd717e6a320cf44b4afac2b0732d9fcbe2b7fa0cf6601f830160051c810191602084106102d5575b601f0160051c01905b8181106102ca5750610127565b5f81556001016102bd565b90915081906102b4565b634e487b7160e01b5f52602260045260245ffd5b90607f1690610115565b634e487b7160e01b5f52604160045260245ffd5b015190505f806100e0565b601f198216955f8052805f20915f5b8881106103655750836001959697981061034d575b505050811b015f556100f4565b01515f1960f88460031b161c191690555f8080610340565b9192602060018192868501518155019401920161032b565b5f80527f290decd9548b62a8d60345a988386fc84ba6bc95484008f6362f93160ef3e563601f830160051c810191602084106103d5575b601f0160051c01905b8181106103ca57506100c4565b5f81556001016103bd565b90915081906103b4565b90607f16906100b2565b5f80fd5b6040519190601f01601f191682016001600160401b038111838210176102fd57604052565b51906001600160a01b03821682036103e95756fe6080806040526004361015610012575f80fd5b5f905f3560e01c90816301ffc9a7146126885750806302b054451461264f57806306fdde0314612579578063081812fc14612511578063095ea7b31461239557806309b49c46146122b15780630c834313146122315780630c98849f146121805780631b292d261461203457806323b872dd1461201d5780632a1b5d7114611f81578063350e422114611f47578063367ca91414611e6a5780633f4ba83a14611dac57806342842e0e14611d8357806354cadc8014611cfa57806359ec67b2146118955780635b01e3741461185b5780635c975abb1461181857806361d027b3146117c75780636352211e1461176d578063664e8c5814610e8057806370a0823114610deb578063715018a614610d4f5780638456cb5914610ca657806389e9633d14610c3a5780638da5cb5b14610be957806392eb9c0c14610bae57806395d89b4114610a51578063a22cb4651461097f578063aaf5eb681461093f578063b88d4fde14610897578063bcf90d2b1461085e578063c7efaf5914610765578063c87b56dd146106ea578063cdf3639214610457578063dbd6759b146103ef578063e985e9c514610371578063f2fde38b146102815763fa62b61f146101d6575f80fd5b3461027e5760407ffffffffffffffffffffffffffffffffffffffffffffffffffffffffffffffffc36011261027e5773ffffffffffffffffffffffffffffffffffffffff60406102246127db565b92600435815260086020522091165f52602052608060405f2073ffffffffffffffffffffffffffffffffffffffff815416906001810154906003600282015491015491604051938452602084015260408301526060820152f35b80fd5b503461027e5760207ffffffffffffffffffffffffffffffffffffffffffffffffffffffffffffffffc36011261027e5773ffffffffffffffffffffffffffffffffffffffff6102ce6127b8565b6102d66131e1565b1680156103455773ffffffffffffffffffffffffffffffffffffffff600654827fffffffffffffffffffffffff0000000000000000000000000000000000000000821617600655167f8be0079c531659141344cd1fd0a4f28419497f9722a3daafe3b4186f6b6457e05f80a380f35b6024827f1e4fbdf700000000000000000000000000000000000000000000000000000000815280600452fd5b503461027e5760407ffffffffffffffffffffffffffffffffffffffffffffffffffffffffffffffffc36011261027e5773ffffffffffffffffffffffffffffffffffffffff60406103c06127b8565b92826103ca6127db565b9416815260056020522091165f52602052602060ff60405f2054166040519015158152f35b503461027e5760207ffffffffffffffffffffffffffffffffffffffffffffffffffffffffffffffffc36011261027e5760ff604060209273ffffffffffffffffffffffffffffffffffffffff6104436127b8565b168152600e84522054166040519015158152f35b503461027e5760207ffffffffffffffffffffffffffffffffffffffffffffffffffffffffffffffffc36011261027e5760043580825260076020526003604083200190604051928384602085549283815201809584526020842092845b8181106106bb5750506104c9925003856129dc565b8351917fffffffffffffffffffffffffffffffffffffffffffffffffffffffffffffffe061050f6104f985612cce565b9461050760405196876129dc565b808652612cce565b01825b81811061068c575050815b85518110156105c05760019082845260086020526040842073ffffffffffffffffffffffffffffffffffffffff80610555848b612f10565b5116165f5260205260405f20600360405191610570836129a4565b73ffffffffffffffffffffffffffffffffffffffff815416835284810154602084015260028101546040840152015460608201526105ae8287612f10565b526105b98186612f10565b500161051d565b8486858560405193849360408501906040865251809152606085019190835b81811061065d575050508381036020850152602080845192838152019301915b81811061060d575050500390f35b91935091602060806001926060875173ffffffffffffffffffffffffffffffffffffffff8151168352848101518584015260408101516040840152015160608201520194019101918493926105ff565b825173ffffffffffffffffffffffffffffffffffffffff168452879650602093840193909201916001016105df565b60209060405161069b816129a4565b858152858382015285604082015285606082015282828801015201610512565b845473ffffffffffffffffffffffffffffffffffffffff168352600194850194899450602090930192016104b4565b346107615760207ffffffffffffffffffffffffffffffffffffffffffffffffffffffffffffffffc36011261076157610724600435612f24565b505f6040516107346020826129dc565b5261075d6040516107466020826129dc565b5f8152604051918291602083526020830190612775565b0390f35b5f80fd5b346107615760207ffffffffffffffffffffffffffffffffffffffffffffffffffffffffffffffffc360112610761575f60c06040516107a3816129c0565b8281528260208201528260408201528260608201528260808201528260a082015201526004355f52600b60205260e060405f206040516107e2816129c0565b815491828252600181015460208301908152600282015460408401908152600383015490606085019182526004840154926080860193845260c0600660058701549660a08901978852015496019586526040519687525160208701525160408601525160608501525160808401525160a08301525160c0820152f35b34610761575f7ffffffffffffffffffffffffffffffffffffffffffffffffffffffffffffffffc36011261076157602060405160fa8152f35b346107615760807ffffffffffffffffffffffffffffffffffffffffffffffffffffffffffffffffc360112610761576108ce6127b8565b6108d66127db565b6064359167ffffffffffffffff831161076157366023840112156107615782600401359161090383612a1d565b9261091160405194856129dc565b8084523660248287010111610761576020815f92602461093d9801838801378501015260443591612d17565b005b34610761575f7ffffffffffffffffffffffffffffffffffffffffffffffffffffffffffffffffc360112610761576020604051670de0b6b3a76400008152f35b346107615773ffffffffffffffffffffffffffffffffffffffff6109a236612919565b9116908115610a2557335f52600560205260405f20825f526020526109f58160405f209060ff7fffffffffffffffffffffffffffffffffffffffffffffffffffffffffffffff0083541691151516179055565b60405190151581527f17307eab39ab6107e8899845ad3d59bd9653f200f220920489ca2b5937696c3160203392a3005b507f5b08ba18000000000000000000000000000000000000000000000000000000005f5260045260245ffd5b34610761575f7ffffffffffffffffffffffffffffffffffffffffffffffffffffffffffffffffc360112610761576040515f6001548060011c90600181168015610ba4575b602083108114610b7757828552908115610b355750600114610ad7575b61075d83610ac3818503826129dc565b604051918291602083526020830190612775565b91905060015f527fb10e2d527612073b26eecdfd717e6a320cf44b4afac2b0732d9fcbe2b7fa0cf6915f905b808210610b1b57509091508101602001610ac3610ab3565b919260018160209254838588010152019101909291610b03565b7fffffffffffffffffffffffffffffffffffffffffffffffffffffffffffffff001660208086019190915291151560051b84019091019150610ac39050610ab3565b7f4e487b71000000000000000000000000000000000000000000000000000000005f52602260045260245ffd5b91607f1691610a96565b34610761575f7ffffffffffffffffffffffffffffffffffffffffffffffffffffffffffffffffc360112610761576020600c54604051908152f35b34610761575f7ffffffffffffffffffffffffffffffffffffffffffffffffffffffffffffffffc36011261076157602073ffffffffffffffffffffffffffffffffffffffff60065416604051908152f35b3461076157610c48366127fe565b905f52600960205260405f209081548110156107615760a0915f52600560205f20910201805490600181015490600281015460ff60046003840154930154169260405194855260208501526040840152606083015215156080820152f35b34610761575f7ffffffffffffffffffffffffffffffffffffffffffffffffffffffffffffffffc36011261076157610cdc6131e1565b610ce4612ff4565b740100000000000000000000000000000000000000007fffffffffffffffffffffff00ffffffffffffffffffffffffffffffffffffffff60065416176006557f62e78cea01bee320cd4e420270b5ea74000d11b0c9f74754ebdbfc544b05a2586020604051338152a1005b34610761575f7ffffffffffffffffffffffffffffffffffffffffffffffffffffffffffffffffc36011261076157610d856131e1565b5f73ffffffffffffffffffffffffffffffffffffffff6006547fffffffffffffffffffffffff00000000000000000000000000000000000000008116600655167f8be0079c531659141344cd1fd0a4f28419497f9722a3daafe3b4186f6b6457e08280a3005b346107615760207ffffffffffffffffffffffffffffffffffffffffffffffffffffffffffffffffc3601126107615773ffffffffffffffffffffffffffffffffffffffff610e376127b8565b168015610e54575f526003602052602060405f2054604051908152f35b7f89c62b64000000000000000000000000000000000000000000000000000000005f525f60045260245ffd5b346107615760a07ffffffffffffffffffffffffffffffffffffffffffffffffffffffffffffffffc3601126107615760043567ffffffffffffffff811161076157610ecf903690600401612973565b9060243567ffffffffffffffff811161076157610ef0903690600401612973565b5f929192506064359173ffffffffffffffffffffffffffffffffffffffff83168093036107615760843591610f23612f7d565b610f2b612ff4565b335f52600e60205260ff60405f20541615611745578515801561173b575b6117135780860361171357600c547fffffffffffffffffffffffffffffffffffffffffffffffffffffffffffffffff81146116e6576001019485600c5584156116ba57855f52600260205273ffffffffffffffffffffffffffffffffffffffff60405f205416801515908161164c575b865f52600360205260405f2060018154019055875f52600260205260405f20877fffffffffffffffffffffffff00000000000000000000000000000000000000008254161790558787827fddf252ad1be2c89b69c2b068fc378daa952ba7f163c4a11628f55a4df523b3ef5f80a45061162057611035846136c8565b60405190610180820182811067ffffffffffffffff82111761144357604052878252602082019033825260408301908882526110708b612cce565b9061107e60405192836129dc565b8b8252602082018c60051b89013681116107615789915b8183106115f357505050606085019182526110af87612cce565b906110bd60405192836129dc565b878252602082018860051b88019036821161076157908d96959493929189905b8282106115e0575050506080870191825260a08701604435815260c0880191825260e08801924284526101008901944286526101208a0196600188526101408b01985f8a526101608c019a5f8c525f52600760205260405f209b518c555173ffffffffffffffffffffffffffffffffffffffff1660018c019073ffffffffffffffffffffffffffffffffffffffff1681547fffffffffffffffffffffffff0000000000000000000000000000000000000000161790555173ffffffffffffffffffffffffffffffffffffffff1660028b019073ffffffffffffffffffffffffffffffffffffffff1681547fffffffffffffffffffffffff00000000000000000000000000000000000000001617905560038a0190519081519167ffffffffffffffff8311611443576801000000000000000083116114435781548383558084106115ba575b50602001905f5260205f205f5b83811061159057505050506004890190519081519167ffffffffffffffff83116114435768010000000000000000831161144357815483835580841061156a575b50602001905f5260205f205f5b8381106115565750505050916112e39391600b979695935160058a0155516006890155516007880155516008870155511515600986019060ff7fffffffffffffffffffffffffffffffffffffffffffffffffffffffffffffff0083541691151516179055565b51600a840155519101555f5b87811061147057505050506006611305826136c8565b91611318611312826136c8565b916136c8565b60405193611325856129c0565b84526020840191825260408401908152606084015f815260808501905f825260a08601925f845260c0870194428652895f52600b60205260405f209751885551600188015551600287015551600386015551600485015551600584015551910155335f52600a60205260405f20928354936801000000000000000085101561144357846113b9916001602097018155612832565b81549060031b907fffffffffffffffffffffffffffffffffffffffffffffffffffffffffffffffff86831b921b1916179055604051908152827fd4ec96d195e842a6a12d3d31e07d5007c9636ae15a51f83aa6c87c9d9c74718b853393a460017f9b779b17422d0df92223018b32b4d1fa46e071723d6817e2486d003becc55f0055604051908152f35b7f4e487b71000000000000000000000000000000000000000000000000000000005f52604160045260245ffd5b80836003898b868973ffffffffffffffffffffffffffffffffffffffff6114f66114a8896114bc816114ad6114a860019f8b8a612ce6565b612cf6565b9b6114b6613726565b98612ce6565b3596846040519b6114cc8d6129a4565b168b5260208b0196875260408b0197885260608b0198428a525f52600860205260405f2095612ce6565b165f5260205273ffffffffffffffffffffffffffffffffffffffff8060405f20965116167fffffffffffffffffffffffff0000000000000000000000000000000000000000865416178555518685015551600284015551910155016112ef565b60019060208451940193818401550161127d565b825f528360205f2091820191015b8181106115855750611270565b5f8155600101611578565b600190602073ffffffffffffffffffffffffffffffffffffffff855116940193818401550161122f565b825f528360205f2091820191015b8181106115d55750611222565b5f81556001016115c8565b813581528f9850602091820191016110dd565b823573ffffffffffffffffffffffffffffffffffffffff8116810361076157815260209283019201611095565b7f73c6ac6e000000000000000000000000000000000000000000000000000000005f525f60045260245ffd5b611683885f52600460205260405f207fffffffffffffffffffffffff00000000000000000000000000000000000000008154169055565b805f52600360205260405f207fffffffffffffffffffffffffffffffffffffffffffffffffffffffffffffffff8154019055610fb9565b7f64a0ae92000000000000000000000000000000000000000000000000000000005f525f60045260245ffd5b7f4e487b71000000000000000000000000000000000000000000000000000000005f52601160045260245ffd5b7f968a9a26000000000000000000000000000000000000000000000000000000005f5260045ffd5b5060148611610f49565b7f6ef0b2d0000000000000000000000000000000000000000000000000000000005f5260045ffd5b346107615760207ffffffffffffffffffffffffffffffffffffffffffffffffffffffffffffffffc3601126107615760206117a9600435612f24565b73ffffffffffffffffffffffffffffffffffffffff60405191168152f35b34610761575f7ffffffffffffffffffffffffffffffffffffffffffffffffffffffffffffffffc36011261076157602073ffffffffffffffffffffffffffffffffffffffff600d5416604051908152f35b34610761575f7ffffffffffffffffffffffffffffffffffffffffffffffffffffffffffffffffc36011261076157602060ff60065460a01c166040519015158152f35b34610761575f7ffffffffffffffffffffffffffffffffffffffffffffffffffffffffffffffffc3601126107615760206040516107d08152f35b346107615760207ffffffffffffffffffffffffffffffffffffffffffffffffffffffffffffffffc360112610761576004356118cf612f7d565b6118d7612ff4565b805f52600760205260405f2060ff60098201541615611cd25760088101908154610e1081018091116116e6574210611caa57905a916119158461322e565b6003019260609060405f5b8654811015611bfa5773ffffffffffffffffffffffffffffffffffffffff6119488289612832565b90549060031b1c1691835f52600760205260405f2090845f52600860205260405f2073ffffffffffffffffffffffffffffffffffffffff85165f52602052600660405f209201549360028301548515611be3575b9081611a269215611bd5575b604051966119b68a896129dc565b60028852843660208a01376119ca88612ef3565b526119d487612f00565b5260208096604051906119e783836129dc565b5f82525f36813760405194859283927f1888debd000000000000000000000000000000000000000000000000000000008452600f600560048601613537565b03815f73ea30c4b8b44078bbf8a6ef5b9f1ec1626c7848d95af1918215611bca575f92611b9b575b50611a77600185015483908015611b8d575b8415611b7d575b9060039d9c9a9b95939291613594565b50875f526008875273ffffffffffffffffffffffffffffffffffffffff60405f2091165f52865260405f20926001840199611ab38b548561302b565b50611abd8961322e565b611ac6896132cc565b885f526007885260405f209b611ada613726565b5f9e8f9e019d8e5b541115611b5657611b4c8f918f611b1060019473ffffffffffffffffffffffffffffffffffffffff92612832565b90549060031b1c168d5f5260088d5273ffffffffffffffffffffffffffffffffffffffff60405f2091165f528c52600260405f20015490613131565b9e019d8e8e611ae2565b5093909a554260039485018190559390940192909255985094965094939150600101611920565b9050611b87613726565b90611a67565b50611b96613726565b611a60565b9091508581813d8311611bc3575b611bb381836129dc565b810103126107615751908b611a4e565b503d611ba9565b6040513d5f823e3d90fd5b50611bde613726565b6119a8565b9450611a2690611bf1613726565b9590915061199c565b4285558286611c08826132cc565b815f52600760205260405f20611c22600882015442612cc1565b908160fa029160fa8304036116e657600a0164496cebb8008154920482018092116116e6577f173233e90130d4565046e5e6e420916134d8e94346782192ea8b9f4c3ba293a792604092611c7892555a90612cc1565b8151904282526020820152a260017f9b779b17422d0df92223018b32b4d1fa46e071723d6817e2486d003becc55f0055005b7f1d516f04000000000000000000000000000000000000000000000000000000005f5260045ffd5b7fa89ba91a000000000000000000000000000000000000000000000000000000005f5260045ffd5b346107615760207ffffffffffffffffffffffffffffffffffffffffffffffffffffffffffffffffc360112610761576004355f52600b60205260e060405f20805490600181015490600281015460038201546004830154916006600585015494015494604051968752602087015260408601526060850152608084015260a083015260c0820152f35b346107615761093d611d94366128a7565b9060405192611da46020856129dc565b5f8452612d17565b34610761575f7ffffffffffffffffffffffffffffffffffffffffffffffffffffffffffffffffc36011261076157611de26131e1565b60065460ff8160a01c1615611e42577fffffffffffffffffffffff00ffffffffffffffffffffffffffffffffffffffff166006557f5db9ee0a495bf2e6ff9c91a7834c1ba4fdd244a5e8aa4e537bd38aeae4b073aa6020604051338152a1005b7f8dfc202b000000000000000000000000000000000000000000000000000000005f5260045ffd5b346107615760207ffffffffffffffffffffffffffffffffffffffffffffffffffffffffffffffffc360112610761576004355f52600760205261014060405f2080549073ffffffffffffffffffffffffffffffffffffffff6001820154169073ffffffffffffffffffffffffffffffffffffffff6002820154166005820154600683015460078401549060088501549260ff60098701541694600b600a88015497015497604051998a5260208a015260408901526060880152608087015260a086015260c0850152151560e0840152610100830152610120820152f35b34610761575f7ffffffffffffffffffffffffffffffffffffffffffffffffffffffffffffffffc360112610761576020604051610e108152f35b346107615773ffffffffffffffffffffffffffffffffffffffff7fefc680526b948975ec7e30eedf672c0751988032504121ef6697c4ba13111b2a6020611fc736612919565b9390611fd16131e1565b1692835f52600e82526120128160405f209060ff7fffffffffffffffffffffffffffffffffffffffffffffffffffffffffffffff0083541691151516179055565b6040519015158152a2005b346107615761093d61202e366128a7565b91612a57565b3461076157612042366127fe565b9061204b612f7d565b612053612ff4565b805f52600760205260405f2073ffffffffffffffffffffffffffffffffffffffff6002820154163314158061215e575b6120ff5760ff60098201541615611cd2576006016120ab81546120a5856136c8565b90613131565b90556040519182527f83d7de07eb14e34aec48e34d6b3a2d265dbcd948bab442146572f9d41c27378c60203393a360017f9b779b17422d0df92223018b32b4d1fa46e071723d6817e2486d003becc55f0055005b6040517f08c379a000000000000000000000000000000000000000000000000000000000815260206004820152600c60248201527f556e617574686f72697a656400000000000000000000000000000000000000006044820152606490fd5b5073ffffffffffffffffffffffffffffffffffffffff60065416331415612083565b346107615760207ffffffffffffffffffffffffffffffffffffffffffffffffffffffffffffffffc3601126107615773ffffffffffffffffffffffffffffffffffffffff6121cc6127b8565b165f52600a60205260405f206040519081602082549182815201915f5260205f20905f5b81811061221b5761075d85612207818703826129dc565b604051918291602083526020830190612874565b82548452602090930192600192830192016121f0565b346107615760407ffffffffffffffffffffffffffffffffffffffffffffffffffffffffffffffffc360112610761576122686127b8565b73ffffffffffffffffffffffffffffffffffffffff60243591165f52600a60205260405f208054821015610761576020916122a291612832565b90549060031b1c604051908152f35b34610761576122bf366127fe565b906122c8612f7d565b6122d0612ff4565b805f52600760205260405f2073ffffffffffffffffffffffffffffffffffffffff60028201541633036120ff5760ff60098201541615611cd257600601612321815461231b856136c8565b9061302b565b9055805f52600b60205261234260405f206002600182015491015490613618565b506040519182527f05ca455a01213f8fad66148acbe3cdab7e54cde2914c9ec51f091a748ae829ef60203393a360017f9b779b17422d0df92223018b32b4d1fa46e071723d6817e2486d003becc55f0055005b346107615760407ffffffffffffffffffffffffffffffffffffffffffffffffffffffffffffffffc360112610761576123cc6127b8565b6024356123d881612f24565b331515806124f1575b806124a4575b61247857819073ffffffffffffffffffffffffffffffffffffffff80851691167f8c5be1e5ebec7d5bd14f71427d1e84f3dd0314c0f7b2291e5b200ac8c7c3b9255f80a45f52600460205273ffffffffffffffffffffffffffffffffffffffff60405f2091167fffffffffffffffffffffffff00000000000000000000000000000000000000008254161790555f80f35b7fa9fbf51f000000000000000000000000000000000000000000000000000000005f523360045260245ffd5b5073ffffffffffffffffffffffffffffffffffffffff81165f52600560205260405f2073ffffffffffffffffffffffffffffffffffffffff33165f5260205260ff60405f205416156123e7565b503373ffffffffffffffffffffffffffffffffffffffff821614156123e1565b346107615760207ffffffffffffffffffffffffffffffffffffffffffffffffffffffffffffffffc3601126107615760043561254c81612f24565b505f526004602052602073ffffffffffffffffffffffffffffffffffffffff60405f205416604051908152f35b34610761575f7ffffffffffffffffffffffffffffffffffffffffffffffffffffffffffffffffc360112610761576040515f80548060011c90600181168015612645575b602083108114610b7757828552908115610b3557506001146125e95761075d83610ac3818503826129dc565b5f8080527f290decd9548b62a8d60345a988386fc84ba6bc95484008f6362f93160ef3e563939250905b80821061262b57509091508101602001610ac3610ab3565b919260018160209254838588010152019101909291612613565b91607f16916125bd565b34610761575f7ffffffffffffffffffffffffffffffffffffffffffffffffffffffffffffffffc36011261076157602060405160148152f35b346107615760207ffffffffffffffffffffffffffffffffffffffffffffffffffffffffffffffffc36011261076157600435907fffffffff00000000000000000000000000000000000000000000000000000000821680920361076157817f80ac58cd000000000000000000000000000000000000000000000000000000006020931490811561274b575b8115612721575b5015158152f35b7f01ffc9a7000000000000000000000000000000000000000000000000000000009150148361271a565b7f5b5e139f0000000000000000000000000000000000000000000000000000000081149150612713565b907fffffffffffffffffffffffffffffffffffffffffffffffffffffffffffffffe0601f602080948051918291828752018686015e5f8582860101520116010190565b6004359073ffffffffffffffffffffffffffffffffffffffff8216820361076157565b6024359073ffffffffffffffffffffffffffffffffffffffff8216820361076157565b7ffffffffffffffffffffffffffffffffffffffffffffffffffffffffffffffffc6040910112610761576004359060243590565b8054821015612847575f5260205f2001905f90565b7f4e487b71000000000000000000000000000000000000000000000000000000005f52603260045260245ffd5b90602080835192838152019201905f5b8181106128915750505090565b8251845260209384019390920191600101612884565b7ffffffffffffffffffffffffffffffffffffffffffffffffffffffffffffffffc60609101126107615760043573ffffffffffffffffffffffffffffffffffffffff81168103610761579060243573ffffffffffffffffffffffffffffffffffffffff81168103610761579060443590565b7ffffffffffffffffffffffffffffffffffffffffffffffffffffffffffffffffc60409101126107615760043573ffffffffffffffffffffffffffffffffffffffff81168103610761579060243580151581036107615790565b9181601f840112156107615782359167ffffffffffffffff8311610761576020808501948460051b01011161076157565b6080810190811067ffffffffffffffff82111761144357604052565b60e0810190811067ffffffffffffffff82111761144357604052565b90601f7fffffffffffffffffffffffffffffffffffffffffffffffffffffffffffffffe0910116810190811067ffffffffffffffff82111761144357604052565b67ffffffffffffffff811161144357601f017fffffffffffffffffffffffffffffffffffffffffffffffffffffffffffffffe01660200190565b919073ffffffffffffffffffffffffffffffffffffffff1680156116ba57815f52600260205273ffffffffffffffffffffffffffffffffffffffff60405f20541692823315159283612bd9575b73ffffffffffffffffffffffffffffffffffffffff935085612b6b575b805f52600360205260405f2060018154019055815f52600260205260405f20817fffffffffffffffffffffffff0000000000000000000000000000000000000000825416179055857fddf252ad1be2c89b69c2b068fc378daa952ba7f163c4a11628f55a4df523b3ef5f80a416808303612b3a57505050565b7f64283d7b000000000000000000000000000000000000000000000000000000005f5260045260245260445260645ffd5b612ba2825f52600460205260405f207fffffffffffffffffffffffff00000000000000000000000000000000000000008154169055565b855f52600360205260405f207fffffffffffffffffffffffffffffffffffffffffffffffffffffffffffffffff8154019055612ac1565b9192905080612c50575b15612bf057828291612aa4565b8284612c21577f7e273289000000000000000000000000000000000000000000000000000000005f5260045260245ffd5b7f177e802f000000000000000000000000000000000000000000000000000000005f523360045260245260445ffd5b503384148015612c8b575b80612be35750825f5260046020523373ffffffffffffffffffffffffffffffffffffffff60405f20541614612be3565b50835f52600560205260405f2073ffffffffffffffffffffffffffffffffffffffff33165f5260205260ff60405f205416612c5b565b919082039182116116e657565b67ffffffffffffffff81116114435760051b60200190565b91908110156128475760051b0190565b3573ffffffffffffffffffffffffffffffffffffffff811681036107615790565b90612d23838284612a57565b803b612d30575b50505050565b602091612d9c73ffffffffffffffffffffffffffffffffffffffff8093169560405195869485947f150b7a020000000000000000000000000000000000000000000000000000000086523360048701521660248501526044840152608060648401526084830190612775565b03815f865af15f9181612e96575b50612e1857503d15612e11573d612dc081612a1d565b90612dce60405192836129dc565b81523d5f602083013e5b80519081612e0c57827f64a0ae92000000000000000000000000000000000000000000000000000000005f5260045260245ffd5b602001fd5b6060612dd8565b7fffffffff000000000000000000000000000000000000000000000000000000007f150b7a0200000000000000000000000000000000000000000000000000000000911603612e6b57505f808080612d2a565b7f64a0ae92000000000000000000000000000000000000000000000000000000005f5260045260245ffd5b9091506020813d602011612eeb575b81612eb2602093836129dc565b8101031261076157517fffffffff000000000000000000000000000000000000000000000000000000008116810361076157905f612daa565b3d9150612ea5565b8051156128475760200190565b8051600110156128475760400190565b80518210156128475760209160051b010190565b805f52600260205273ffffffffffffffffffffffffffffffffffffffff60405f205416908115612f52575090565b7f7e273289000000000000000000000000000000000000000000000000000000005f5260045260245ffd5b60027f9b779b17422d0df92223018b32b4d1fa46e071723d6817e2486d003becc55f005414612fcc5760027f9b779b17422d0df92223018b32b4d1fa46e071723d6817e2486d003becc55f0055565b7f3ee5aeb5000000000000000000000000000000000000000000000000000000005f5260045ffd5b60ff60065460a01c1661300357565b7fd93c0665000000000000000000000000000000000000000000000000000000005f5260045ffd5b908115613121575b8015613113575b604051916130496060846129dc565b60028352604036602085013761305e83612ef3565b5261306882612f00565b526130bd602080926040519061307e83836129dc565b5f82525f36813760405193849283927f1888debd0000000000000000000000000000000000000000000000000000000084526007600560048601613537565b03815f73ea30c4b8b44078bbf8a6ef5b9f1ec1626c7848d95af1918215611bca575f926130e957505090565b90809250813d831161310c575b61310081836129dc565b81010312610761575190565b503d6130f6565b5061311c613726565b61303a565b905061312b613726565b90613033565b9081156131d1575b80156131c3575b6040519161314f6060846129dc565b60028352604036602085013761316483612ef3565b5261316e82612f00565b526130bd602080926040519061318483836129dc565b5f82525f36813760405193849283927f1888debd0000000000000000000000000000000000000000000000000000000084526008600560048601613537565b506131cc613726565b613140565b90506131db613726565b90613139565b73ffffffffffffffffffffffffffffffffffffffff60065416330361320257565b7f118cdaa7000000000000000000000000000000000000000000000000000000005f523360045260245ffd5b90815f52600760205260405f2091613244613726565b5f9260038501915b82548510156132bf576132b760019173ffffffffffffffffffffffffffffffffffffffff61327a8887612832565b90549060031b1c16865f52600860205273ffffffffffffffffffffffffffffffffffffffff60405f2091165f526020528260405f20015490613131565b94019361324c565b9350939050600691500155565b805f52600b60205260405f20905f526007602052600660405f20018054908160018401556133006002840192835490613618565b90549082549082908015613441575b6133249315613431575b821561342157613748565b906020918261338e6040519261333a83856129dc565b5f84525f3681376133be60405194859384937f1888debd0000000000000000000000000000000000000000000000000000000085526005600486015260046024860152608060448601526084850190612874565b907ffffffffffffffffffffffffffffffffffffffffffffffffffffffffffffffffc848303016064850152612874565b03815f73ea30c4b8b44078bbf8a6ef5b9f1ec1626c7848d95af1928315611bca575f936133f1575b505055600642910155565b9080929350813d831161341a575b61340981836129dc565b810103126107615751905f806133e6565b503d6133ff565b915061342b613726565b91613748565b905061343b613726565b90613319565b5061349e9260208060405161345682826129dc565b5f81525f3681376134685f8080613748565b9060405197889283927f1888debd0000000000000000000000000000000000000000000000000000000084525f600485016134ff565b03815f73ea30c4b8b44078bbf8a6ef5b9f1ec1626c7848d95af1908115611bca575f916134cf575b5090935061330f565b905084813d83116134f8575b6134e581836129dc565b810103126107615761332493515f6134c6565b503d6134db565b916135269060ff6135349593168452601a6020850152608060408501526080840190612874565b916060818403910152612874565b90565b9293919060ff16835260208110156135675761353493613526916020850152608060408501526080840190612874565b7f4e487b71000000000000000000000000000000000000000000000000000000005f52602160045260245ffd5b90604051916135a46060846129dc565b6002835260403660208501376135b983612ef3565b526135c382612f00565b526130bd60208092604051906135d983836129dc565b5f82525f36813760405193849283927f1888debd0000000000000000000000000000000000000000000000000000000084526014600560048601613537565b9081156136b8575b80156136aa575b604051916136366060846129dc565b60028352604036602085013761364b83612ef3565b5261365582612f00565b526130bd602080926040519061366b83836129dc565b5f82525f36813760405193849283927f1888debd0000000000000000000000000000000000000000000000000000000084526015600560048601613537565b506136b3613726565b613627565b90506136c2613726565b90613620565b6130bd602080926136ef5f6005604051936136e386866129dc565b82855282368137613748565b9060405193849283927f1888debd0000000000000000000000000000000000000000000000000000000084526005600485016134ff565b60206130bd8160405161373982826129dc565b5f81525f3681376136ef5f6005815b9190604051926137596080856129dc565b60038452606036602086013761376e84612ef3565b5261377883612f00565b528151600210156128475760608201529056","linkReferences":{}},"methodIdentifiers":{"MANAGEMENT_FEE_BPS()":"bcf90d2b","MAX_ASSETS_PER_PORTFOLIO()":"02b05445","MIN_REBALANCE_INTERVAL()":"350e4221","PERFORMANCE_FEE_BPS()":"5b01e374","PRECISION()":"aaf5eb68","addInvestment(uint256,uint256)":"1b292d26","approve(address,uint256)":"095ea7b3","authorizeStrategist(address,bool)":"2a1b5d71","authorizedStrategists(address)":"dbd6759b","balanceOf(address)":"70a08231","createPortfolio(address[],uint256[],bytes32,address,uint256)":"664e8c58","executeRebalancing(uint256)":"59ec67b2","getApproved(uint256)":"081812fc","getPortfolioHoldings(uint256)":"cdf36392","getPortfolioPerformance(uint256)":"c7efaf59","getStrategistPortfolios(address)":"0c98849f","holdings(uint256,address)":"fa62b61f","isApprovedForAll(address,address)":"e985e9c5","name()":"06fdde03","owner()":"8da5cb5b","ownerOf(uint256)":"6352211e","pause()":"8456cb59","paused()":"5c975abb","performanceData(uint256)":"54cadc80","portfolioCounter()":"92eb9c0c","portfolios(uint256)":"367ca914","rebalancingRules(uint256,uint256)":"89e9633d","renounceOwnership()":"715018a6","safeTransferFrom(address,address,uint256)":"42842e0e","safeTransferFrom(address,address,uint256,bytes)":"b88d4fde","setApprovalForAll(address,bool)":"a22cb465","strategistPortfolios(address,uint256)":"0c834313","supportsInterface(bytes4)":"01ffc9a7","symbol()":"95d89b41","tokenURI(uint256)":"c87b56dd","transferFrom(address,address,uint256)":"23b872dd","transferOwnership(address)":"f2fde38b","treasury()":"61d027b3","unpause()":"3f4ba83a","withdrawInvestment(uint256,uint256)":"09b49c46"},"id":8}