{"abi":[{"type":"constructor","inputs":[{"name":"initialOwner","type":"address","internalType":"address"}],"stateMutability":"nonpayable"},{"type":"function","name":"BASIS_POINTS","inputs":[],"outputs":[{"name":"","type":"uint256","internalType":"uint256"}],"stateMutability":"view"},{"type":"function","name":"DEFAULT_VAR_CONFIDENCE","inputs":[],"outputs":[{"name":"","type":"uint256","internalType":"uint256"}],"stateMutability":"view"},{"type":"function","name":"LIQUIDATION_THRESHOLD","inputs":[],"outputs":[{"name":"","type":"uint256","internalType":"uint256"}],"stateMutability":"view"},{"type":"function","name":"MAX_LEVERAGE","inputs":[],"outputs":[{"name":"","type":"uint256","internalType":"uint256"}],"stateMutability":"view"},{"type":"function","name":"RISK_CHECK_INTERVAL","inputs":[],"outputs":[{"name":"","type":"uint256","internalType":"uint256"}],"stateMutability":"view"},{"type":"function","name":"authorizeRiskManager","inputs":[{"name":"manager","type":"address","internalType":"address"},{"name":"authorized","type":"bool","internalType":"bool"}],"outputs":[],"stateMutability":"nonpayable"},{"type":"function","name":"circuitBreakers","inputs":[{"name":"","type":"bytes32","internalType":"bytes32"}],"outputs":[{"name":"encryptedTriggerLevel","type":"uint256","internalType":"euint64"},{"name":"cooldownPeriod","type":"uint256","internalType":"uint256"},{"name":"lastTriggered","type":"uint256","internalType":"uint256"},{"name":"isActive","type":"bool","internalType":"bool"},{"name":"isTriggered","type":"bool","internalType":"bool"}],"stateMutability":"view"},{"type":"function","name":"exitEmergencyMode","inputs":[],"outputs":[],"stateMutability":"nonpayable"},{"type":"function","name":"getPortfolioRisk","inputs":[{"name":"portfolio","type":"address","internalType":"address"}],"outputs":[{"name":"","type":"tuple","internalType":"struct RiskEngine.PortfolioRisk","components":[{"name":"encryptedTotalExposure","type":"uint256","internalType":"euint64"},{"name":"encryptedCurrentVaR","type":"uint256","internalType":"euint64"},{"name":"encryptedBeta","type":"uint256","internalType":"euint64"},{"name":"encryptedVolatility","type":"uint256","internalType":"euint64"},{"name":"leverage","type":"uint256","internalType":"uint256"},{"name":"lastUpdate","type":"uint256","internalType":"uint256"},{"name":"isHighRisk","type":"bool","internalType":"bool"}]}],"stateMutability":"view"},{"type":"function","name":"getSystemRisk","inputs":[],"outputs":[{"name":"","type":"tuple","internalType":"struct RiskEngine.SystemRisk","components":[{"name":"encryptedTotalTVL","type":"uint256","internalType":"euint64"},{"name":"encryptedSystemVaR","type":"uint256","internalType":"euint64"},{"name":"encryptedConcentrationRisk","type":"uint256","internalType":"euint64"},{"name":"activePortfolios","type":"uint256","internalType":"uint256"},{"name":"lastUpdate","type":"uint256","internalType":"uint256"},{"name":"emergencyMode","type":"bool","internalType":"bool"}]}],"stateMutability":"view"},{"type":"function","name":"isCircuitBreakerActive","inputs":[{"name":"identifier","type":"bytes32","internalType":"bytes32"}],"outputs":[{"name":"","type":"bool","internalType":"bool"}],"stateMutability":"view"},{"type":"function","name":"lastRiskCheck","inputs":[{"name":"","type":"bytes32","internalType":"bytes32"}],"outputs":[{"name":"","type":"uint256","internalType":"uint256"}],"stateMutability":"view"},{"type":"function","name":"owner","inputs":[],"outputs":[{"name":"","type":"address","internalType":"address"}],"stateMutability":"view"},{"type":"function","name":"paused","inputs":[],"outputs":[{"name":"","type":"bool","internalType":"bool"}],"stateMutability":"view"},{"type":"function","name":"poolRiskParams","inputs":[{"name":"","type":"bytes32","internalType":"bytes32"}],"outputs":[{"name":"encryptedMaxExposure","type":"uint256","internalType":"euint64"},{"name":"encryptedVaRLimit","type":"uint256","internalType":"euint64"},{"name":"encryptedCorrelationLimit","type":"uint256","internalType":"euint64"},{"name":"maxLeverage","type":"uint256","internalType":"uint256"},{"name":"liquidationThreshold","type":"uint256","internalType":"uint256"},{"name":"concentrationLimit","type":"uint256","internalType":"uint256"},{"name":"isActive","type":"bool","internalType":"bool"}],"stateMutability":"view"},{"type":"function","name":"portfolioRisk","inputs":[{"name":"","type":"address","internalType":"address"}],"outputs":[{"name":"encryptedTotalExposure","type":"uint256","internalType":"euint64"},{"name":"encryptedCurrentVaR","type":"uint256","internalType":"euint64"},{"name":"encryptedBeta","type":"uint256","internalType":"euint64"},{"name":"encryptedVolatility","type":"uint256","internalType":"euint64"},{"name":"leverage","type":"uint256","internalType":"uint256"},{"name":"lastUpdate","type":"uint256","internalType":"uint256"},{"name":"isHighRisk","type":"bool","internalType":"bool"}],"stateMutability":"view"},{"type":"function","name":"renounceOwnership","inputs":[],"outputs":[],"stateMutability":"nonpayable"},{"type":"function","name":"resetCircuitBreaker","inputs":[{"name":"identifier","type":"bytes32","internalType":"bytes32"}],"outputs":[],"stateMutability":"nonpayable"},{"type":"function","name":"riskManagers","inputs":[{"name":"","type":"address","internalType":"address"}],"outputs":[{"name":"","type":"bool","internalType":"bool"}],"stateMutability":"view"},{"type":"function","name":"riskOracles","inputs":[{"name":"","type":"address","internalType":"address"}],"outputs":[{"name":"","type":"address","internalType":"address"}],"stateMutability":"view"},{"type":"function","name":"setPoolRiskParameters","inputs":[{"name":"poolId","type":"bytes32","internalType":"bytes32"},{"name":"encryptedMaxExposure","type":"uint256","internalType":"euint64"},{"name":"encryptedVaRLimit","type":"uint256","internalType":"euint64"},{"name":"maxLeverage","type":"uint256","internalType":"uint256"}],"outputs":[],"stateMutability":"nonpayable"},{"type":"function","name":"setupCircuitBreaker","inputs":[{"name":"identifier","type":"bytes32","internalType":"bytes32"},{"name":"encryptedTriggerLevel","type":"uint256","internalType":"euint64"},{"name":"cooldownPeriod","type":"uint256","internalType":"uint256"}],"outputs":[],"stateMutability":"nonpayable"},{"type":"function","name":"systemRisk","inputs":[],"outputs":[{"name":"encryptedTotalTVL","type":"uint256","internalType":"euint64"},{"name":"encryptedSystemVaR","type":"uint256","internalType":"euint64"},{"name":"encryptedConcentrationRisk","type":"uint256","internalType":"euint64"},{"name":"activePortfolios","type":"uint256","internalType":"uint256"},{"name":"lastUpdate","type":"uint256","internalType":"uint256"},{"name":"emergencyMode","type":"bool","internalType":"bool"}],"stateMutability":"view"},{"type":"function","name":"transferOwnership","inputs":[{"name":"newOwner","type":"address","internalType":"address"}],"outputs":[],"stateMutability":"nonpayable"},{"type":"function","name":"updatePortfolioRisk","inputs":[{"name":"portfolio","type":"address","internalType":"address"},{"name":"encryptedExposure","type":"uint256","internalType":"euint64"},{"name":"leverage","type":"uint256","internalType":"uint256"}],"outputs":[],"stateMutability":"nonpayable"},{"type":"function","name":"updateSystemRisk","inputs":[],"outputs":[],"stateMutability":"nonpayable"},{"type":"event","name":"CircuitBreakerReset","inputs":[{"name":"identifier","type":"bytes32","indexed":true,"internalType":"bytes32"},{"name":"timestamp","type":"uint256","indexed":false,"internalType":"uint256"}],"anonymous":false},{"type":"event","name":"CircuitBreakerTriggered","inputs":[{"name":"identifier","type":"bytes32","indexed":true,"internalType":"bytes32"},{"name":"timestamp","type":"uint256","indexed":false,"internalType":"uint256"}],"anonymous":false},{"type":"event","name":"HighRiskPortfolioDetected","inputs":[{"name":"portfolio","type":"address","indexed":true,"internalType":"address"},{"name":"riskLevel","type":"uint256","indexed":false,"internalType":"uint256"}],"anonymous":false},{"type":"event","name":"LiquidationTriggered","inputs":[{"name":"portfolio","type":"address","indexed":true,"internalType":"address"},{"name":"reason","type":"uint256","indexed":false,"internalType":"uint256"}],"anonymous":false},{"type":"event","name":"OwnershipTransferred","inputs":[{"name":"previousOwner","type":"address","indexed":true,"internalType":"address"},{"name":"newOwner","type":"address","indexed":true,"internalType":"address"}],"anonymous":false},{"type":"event","name":"Paused","inputs":[{"name":"account","type":"address","indexed":false,"internalType":"address"}],"anonymous":false},{"type":"event","name":"RiskManagerUpdated","inputs":[{"name":"manager","type":"address","indexed":true,"internalType":"address"},{"name":"authorized","type":"bool","indexed":false,"internalType":"bool"}],"anonymous":false},{"type":"event","name":"RiskParametersUpdated","inputs":[{"name":"poolId","type":"bytes32","indexed":true,"internalType":"bytes32"},{"name":"updater","type":"address","indexed":false,"internalType":"address"}],"anonymous":false},{"type":"event","name":"Unpaused","inputs":[{"name":"account","type":"address","indexed":false,"internalType":"address"}],"anonymous":false},{"type":"error","name":"CircuitBreakerActive","inputs":[]},{"type":"error","name":"EnforcedPause","inputs":[]},{"type":"error","name":"ExpectedPause","inputs":[]},{"type":"error","name":"InvalidRiskParameters","inputs":[]},{"type":"error","name":"LiquidationRequired","inputs":[]},{"type":"error","name":"OwnableInvalidOwner","inputs":[{"name":"owner","type":"address","internalType":"address"}]},{"type":"error","name":"OwnableUnauthorizedAccount","inputs":[{"name":"account","type":"address","internalType":"address"}]},{"type":"error","name":"ReentrancyGuardReentrantCall","inputs":[]},{"type":"error","name":"RiskLimitExceeded","inputs":[]},{"type":"error","name":"SecurityZoneOutOfBounds","inputs":[{"name":"value","type":"int32","internalType":"int32"}]},{"type":"error","name":"UnauthorizedRiskManager","inputs":[]}],"bytecode":{"object":"0x6080806040523461015057602081611e27803803809161001f8285610154565b83398101031261015057516001600160a01b0381169081900361015057801561013d575f80546001600160a01b03198116831782556001600160a01b0316907f8be0079c531659141344cd1fd0a4f28419497f9722a3daafe3b4186f6b6457e09080a360017f9b779b17422d0df92223018b32b4d1fa46e071723d6817e2486d003becc55f00556100ae610177565b6100b6610177565b6100be610177565b60405190929060c081016001600160401b03811182821017610129575f9160a09160405283815284602082015285604082015282606082015242608082015201526003556004556005555f6006554260075560ff1960085416600855604051611b5f90816102c88239f35b634e487b7160e01b5f52604160045260245ffd5b631e4fbdf760e01b5f525f60045260245ffd5b5f80fd5b601f909101601f19168101906001600160401b0382119082101761012957604052565b60206040516101868282610154565b5f81525f3681376040519061019c608083610154565b6003825260603684840137815115610280575f8383015281516001101561028057600560408301528151600210156102805761020d83915f606085015261021f6040519485938493631888debd60e01b855260056004860152601a6024860152608060448601526084850190610294565b83810360031901606485015290610294565b03815f73ea30c4b8b44078bbf8a6ef5b9f1ec1626c7848d95af1918215610275575f9261024b57505090565b90809250813d831161026e575b6102628183610154565b81010312610150575190565b503d610258565b6040513d5f823e3d90fd5b634e487b7160e01b5f52603260045260245ffd5b90602080835192838152019201905f5b8181106102b15750505090565b82518452602093840193909201916001016102a456fe6080806040526004361015610012575f80fd5b5f3560e01c9081630654f91e146114ce5750806307c64d61146113ea57806314a751811461138057806322806c0f1461124b57806322c797ca146111305780633343a2ac1461108757806337dbda3e146110345780634806faaa14610fbb57806348c5e1cc14610f735780634b5e132c14610bb45780635a33c2d914610b7a5780635c975abb14610b38578063715018a614610a9e5780638447966914610a225780638a4e58b2146109e85780638da5cb5b146109985780638e99c8151461080357806390a8ae9b146107c9578063918150b3146106f85780639b45ec97146106b7578063b195b43e146105e7578063e1f1c4a7146105ad578063e6271b551461049b578063e83937cc14610433578063f2fde38b146103475763f5ec9f9b1461013a575f80fd5b346103315760807ffffffffffffffffffffffffffffffffffffffffffffffffffffffffffffffffc3601126103315760043561017461162f565b61020260208060405161018782826115b4565b5f81525f3681376040519061019d6080836115b4565b6003825260603684840137611f406101b483611b05565b5260056101c083611b3f565b525f6101cb83611b4f565b5260405194859283927f1888debd000000000000000000000000000000000000000000000000000000008452600560048501611972565b03815f73ea30c4b8b44078bbf8a6ef5b9f1ec1626c7848d95af191821561033c575f92610307575b506102fe827fd7b0cf34b077076f7c664579b8ed6c1047aebb8f75c8988f35bc281fa59f7fef93506006604051916102618361157c565b6024358352848301906044358252604084019081526060840160643581526080850190612134825260a08601926107d0845260c0870194600186528b5f5260018a5260405f209751885551600188015551600287015551600386015551600485015551600584015551151591019060ff7fffffffffffffffffffffffffffffffffffffffffffffffffffffffffffffff0083541691151516179055565b604051338152a2005b91508082813d8311610335575b61031e81836115b4565b81010312610331579051906102fe61022a565b5f80fd5b503d610314565b6040513d5f823e3d90fd5b346103315760207ffffffffffffffffffffffffffffffffffffffffffffffffffffffffffffffffc3601126103315773ffffffffffffffffffffffffffffffffffffffff610393611559565b61039b61162f565b1680156104075773ffffffffffffffffffffffffffffffffffffffff5f54827fffffffffffffffffffffffff00000000000000000000000000000000000000008216175f55167f8be0079c531659141344cd1fd0a4f28419497f9722a3daafe3b4186f6b6457e05f80a3005b7f1e4fbdf7000000000000000000000000000000000000000000000000000000005f525f60045260245ffd5b346103315760207ffffffffffffffffffffffffffffffffffffffffffffffffffffffffffffffffc3601126103315773ffffffffffffffffffffffffffffffffffffffff61047f611559565b165f52600b602052602060ff60405f2054166040519015158152f35b346103315760207ffffffffffffffffffffffffffffffffffffffffffffffffffffffffffffffffc360112610331576004356104d561162f565b805f52600960205260405f206104f460028201546001830154906115f5565b421061054f576003017fffffffffffffffffffffffffffffffffffffffffffffffffffffffffffff00ff81541690557fbae506d49d64011f4ab0f2dbff3426146fca3939fb6ad48677c5cdbb77be22ab6020604051428152a2005b60646040517f08c379a000000000000000000000000000000000000000000000000000000000815260206004820152601b60248201527f436f6f6c646f776e20706572696f64206e6f7420656c617073656400000000006044820152fd5b34610331575f7ffffffffffffffffffffffffffffffffffffffffffffffffffffffffffffffffc3601126103315760206040516127108152f35b34610331575f7ffffffffffffffffffffffffffffffffffffffffffffffffffffffffffffffffc360112610331575f60a060405161062481611598565b828152826020820152826040820152826060820152826080820152015260c060405161064f81611598565b6003549081815260045460208201908152600554604083019081526006549060608401918252600754926080850193845260a060ff600854169501941515855260405195865251602086015251604085015251606084015251608083015251151560a0820152f35b34610331575f7ffffffffffffffffffffffffffffffffffffffffffffffffffffffffffffffffc3601126103315760206040516801158e460913d000008152f35b346103315760407ffffffffffffffffffffffffffffffffffffffffffffffffffffffffffffffffc3601126103315761072f611559565b6024359081151590818303610331577f19f7a0dbe1d6d4329b5d8be0e119bd88bc7fc5b47fe090f187dfad21eca2bef2916107c073ffffffffffffffffffffffffffffffffffffffff60209361078361162f565b1694855f52600b845260405f209060ff7fffffffffffffffffffffffffffffffffffffffffffffffffffffffffffffff0083541691151516179055565b604051908152a2005b34610331575f7ffffffffffffffffffffffffffffffffffffffffffffffffffffffffffffffffc3601126103315760206040516121348152f35b34610331575f7ffffffffffffffffffffffffffffffffffffffffffffffffffffffffffffffffc3601126103315761083961167b565b610841611acb565b610849611acb565b9060045580600355426007556020906108e48260405161086982826115b4565b5f81525f3681376040519061087f6080836115b4565b60038252606036848401376103e861089683611b05565b5260056108a283611b3f565b525f6108ad83611b4f565b5260405193849283927f1888debd000000000000000000000000000000000000000000000000000000008452600560048501611972565b03815f73ea30c4b8b44078bbf8a6ef5b9f1ec1626c7848d95af192831561033c575f93610964575b506109429261092d9261091f92506116e1565b610927611a8b565b906117e7565b600454818115610954575b1561094457611a07565b005b905061094e611acb565b90611a07565b905061095e611acb565b90610938565b90809350813d8311610991575b61097b81836115b4565b810103126103315790519061091f61092d61090c565b503d610971565b34610331575f7ffffffffffffffffffffffffffffffffffffffffffffffffffffffffffffffffc36011261033157602073ffffffffffffffffffffffffffffffffffffffff5f5416604051908152f35b34610331575f7ffffffffffffffffffffffffffffffffffffffffffffffffffffffffffffffffc36011261033157602060405161012c8152f35b346103315760207ffffffffffffffffffffffffffffffffffffffffffffffffffffffffffffffffc360112610331576004355f52600960205260a060405f2060ff8154916001810154906003600282015491015491604051948552602085015260408401528181161515606084015260081c1615156080820152f35b34610331575f7ffffffffffffffffffffffffffffffffffffffffffffffffffffffffffffffffc36011261033157610ad461162f565b5f73ffffffffffffffffffffffffffffffffffffffff81547fffffffffffffffffffffffff000000000000000000000000000000000000000081168355167f8be0079c531659141344cd1fd0a4f28419497f9722a3daafe3b4186f6b6457e08280a3005b34610331575f7ffffffffffffffffffffffffffffffffffffffffffffffffffffffffffffffffc36011261033157602060ff5f5460a01c166040519015158152f35b34610331575f7ffffffffffffffffffffffffffffffffffffffffffffffffffffffffffffffffc36011261033157602060405161251c8152f35b346103315760607ffffffffffffffffffffffffffffffffffffffffffffffffffffffffffffffffc36011261033157610beb611559565b60243590610bf761167b565b73ffffffffffffffffffffffffffffffffffffffff81165f8181526002602090815260409182902085815560443560048201556003810154925190959394919392610c7490610c4686846115b4565b5f83525f36813785604051610c5c6080826115b4565b6003815260609485368484013760e96101b483611b05565b03815f73ea30c4b8b44078bbf8a6ef5b9f1ec1626c7848d95af191821561033c575f92610f42575b5061091f82610caf92610ce994506116e1565b9385604051610cbe82826115b4565b5f81525f36813760405190610cd46080836115b4565b60038252853684840137606e6101b483611b05565b03815f73ea30c4b8b44078bbf8a6ef5b9f1ec1626c7848d95af191821561033c5786905f93610f11575b506040519293610d5193610d2783826115b4565b5f81525f36813760405191610d3d6080846115b4565b60038352368484013760786101b483611b05565b03815f73ea30c4b8b44078bbf8a6ef5b9f1ec1626c7848d95af191821561033c575f92610ede575b5061091f82610d9461213497610d9a94610da09796506116e1565b936116e1565b906116e1565b6001860155835f526002835260405f20600481019185835492866801158e460913d000008511610e10575b50505050505411610ddf575b426005840155005b7f518c4e18971712e9ead4b0494dcf1bfc39d789cf7622ddfc960c7d62661512da9060405160018152a28180610dd7565b610ed49460067f83c92bc6cf8e24153be17a29c8c6a688f92353ee3bf615f52f8a7b3518a6f09d930160017fffffffffffffffffffffffffffffffffffffffffffffffffffffffffffffff00825416179055604051908152a26040517fffffffffffffffffffffffffffffffffffffffff000000000000000000000000868201927f6c65766572616765000000000000000000000000000000000000000000000000845260601b166028820152601c8152610ecc603c826115b4565b519020611897565b8580858186610dcb565b909291508581813d8311610f0a575b610ef781836115b4565b810103126103315751909161091f610d79565b503d610eed565b809350813d8311610f3b575b610f2781836115b4565b810103126103315785610d51925192610d13565b503d610f1d565b91508582813d8311610f6c575b610f5981836115b4565b810103126103315790519061091f610c9c565b503d610f4f565b346103315760207ffffffffffffffffffffffffffffffffffffffffffffffffffffffffffffffffc360112610331576004355f52600c602052602060405f2054604051908152f35b346103315760207ffffffffffffffffffffffffffffffffffffffffffffffffffffffffffffffffc3601126103315773ffffffffffffffffffffffffffffffffffffffff611007611559565b165f52600a602052602073ffffffffffffffffffffffffffffffffffffffff60405f205416604051908152f35b346103315760207ffffffffffffffffffffffffffffffffffffffffffffffffffffffffffffffffc360112610331576004355f526009602052602060ff600360405f20015460081c166040519015158152f35b346103315760207ffffffffffffffffffffffffffffffffffffffffffffffffffffffffffffffffc3601126103315773ffffffffffffffffffffffffffffffffffffffff6110d3611559565b165f52600260205260e060405f208054906001810154906002810154600382015460048301549160ff600660058601549501541694604051968752602087015260408601526060850152608084015260a0830152151560c0820152f35b346103315760207ffffffffffffffffffffffffffffffffffffffffffffffffffffffffffffffffc3601126103315773ffffffffffffffffffffffffffffffffffffffff61117c611559565b5f60c060405161118b8161157c565b8281528260208201528260408201528260608201528260808201528260a08201520152165f52600260205260e060405f206040516111c88161157c565b815491828252600181015460208301908152600282015460408401908152600383015490606085019182526004840154926080860193845260c060ff600660058801549760a08a01988952015416960195151586526040519687525160208701525160408601525160608501525160808401525160a083015251151560c0820152f35b346103315760607ffffffffffffffffffffffffffffffffffffffffffffffffffffffffffffffffc3601126103315761128261162f565b60405160a0810181811067ffffffffffffffff82111761135357604052602435815260208101604435815261131f600360408401935f855260608101946001865260808201945f86526004355f52600960205260405f20925183555160018301555160028201550192511515839060ff7fffffffffffffffffffffffffffffffffffffffffffffffffffffffffffffff0083541691151516179055565b5181547fffffffffffffffffffffffffffffffffffffffffffffffffffffffffffff00ff1690151560081b61ff0016179055005b7f4e487b71000000000000000000000000000000000000000000000000000000005f52604160045260245ffd5b34610331575f7ffffffffffffffffffffffffffffffffffffffffffffffffffffffffffffffffc3601126103315760c06003546004546005546006546007549160ff60085416936040519586526020860152604085015260608401526080830152151560a0820152f35b34610331575f7ffffffffffffffffffffffffffffffffffffffffffffffffffffffffffffffffc3601126103315761142061162f565b7fffffffffffffffffffffffffffffffffffffffffffffffffffffffffffffff00600854166008555f5460ff8160a01c16156114a6577fffffffffffffffffffffff00ffffffffffffffffffffffffffffffffffffffff165f557f5db9ee0a495bf2e6ff9c91a7834c1ba4fdd244a5e8aa4e537bd38aeae4b073aa6020604051338152a1005b7f8dfc202b000000000000000000000000000000000000000000000000000000005f5260045ffd5b346103315760207ffffffffffffffffffffffffffffffffffffffffffffffffffffffffffffffffc3601126103315760e0906004355f52600160205260405f208054906001810154600282015460038301549060048401549260ff6006600587015496015416958752602087015260408601526060850152608084015260a0830152151560c0820152f35b6004359073ffffffffffffffffffffffffffffffffffffffff8216820361033157565b60e0810190811067ffffffffffffffff82111761135357604052565b60c0810190811067ffffffffffffffff82111761135357604052565b90601f7fffffffffffffffffffffffffffffffffffffffffffffffffffffffffffffffe0910116810190811067ffffffffffffffff82111761135357604052565b9190820180921161160257565b7f4e487b71000000000000000000000000000000000000000000000000000000005f52601160045260245ffd5b73ffffffffffffffffffffffffffffffffffffffff5f5416330361164f57565b7f118cdaa7000000000000000000000000000000000000000000000000000000005f523360045260245ffd5b335f52600b60205260ff60405f20541615806116c0575b61169857565b7f4326ef0b000000000000000000000000000000000000000000000000000000005f5260045ffd5b5073ffffffffffffffffffffffffffffffffffffffff5f5416331415611692565b9081156117d7575b80156117c9575b604051916116ff6060846115b4565b60028352604036602085013761171483611b05565b5261171e82611b3f565b52611773602080926040519061173483836115b4565b5f82525f36813760405193849283927f1888debd000000000000000000000000000000000000000000000000000000008452600f6005600486016119aa565b03815f73ea30c4b8b44078bbf8a6ef5b9f1ec1626c7848d95af191821561033c575f9261179f57505090565b90809250813d83116117c2575b6117b681836115b4565b81010312610331575190565b503d6117ac565b506117d2611acb565b6116f0565b90506117e1611acb565b906116e9565b908115611887575b8015611879575b604051916118056060846115b4565b60028352604036602085013761181a83611b05565b5261182482611b3f565b52611773602080926040519061183a83836115b4565b5f82525f36813760405193849283927f1888debd000000000000000000000000000000000000000000000000000000008452600d6005600486016119aa565b50611882611acb565b6117f6565b9050611891611acb565b906117ef565b805f52600960205260405f2060038101805460ff81161561191e5760ff8160081c1680611924575b61191e577fffffffffffffffffffffffffffffffffffffffffffffffffffffffffffff00ff61010091161790556002429101557f12c8e08474d97942b310d3a547c899ba2c6280195c241de1bc1a433520428b0b6020604051428152a2565b50505050565b5061193860028401546001850154906115f5565b42106118bf565b90602080835192838152019201905f5b81811061195c5750505090565b825184526020938401939092019160010161194f565b916119999060ff6119a79593168452601a602085015260806040850152608084019061193f565b91606081840391015261193f565b90565b9293919060ff16835260208110156119da576119a79361199991602085015260806040850152608084019061193f565b7f4e487b71000000000000000000000000000000000000000000000000000000005f52602160045260245ffd5b9060405191611a176060846115b4565b600283526040366020850137611a2c83611b05565b52611a3682611b3f565b526117736020809260405190611a4c83836115b4565b5f82525f36813760405193849283927f1888debd00000000000000000000000000000000000000000000000000000000845260156005600486016119aa565b602061177381604051611a9e82826115b4565b5f81525f36813760405190611ab46080836115b4565b600382526060368484013761271061089683611b05565b602061177381604051611ade82826115b4565b5f81525f36813760405190611af46080836115b4565b60038252606036848401375f610896835b805115611b125760200190565b7f4e487b71000000000000000000000000000000000000000000000000000000005f52603260045260245ffd5b805160011015611b125760400190565b805160021015611b12576060019056","linkReferences":{}},"methodIdentifiers":{"BASIS_POINTS()":"e1f1c4a7","DEFAULT_VAR_CONFIDENCE()":"5a33c2d9","LIQUIDATION_THRESHOLD()":"90a8ae9b","MAX_LEVERAGE()":"9b45ec97","RISK_CHECK_INTERVAL()":"8a4e58b2","authorizeRiskManager(address,bool)":"918150b3","circuitBreakers(bytes32)":"84479669","exitEmergencyMode()":"07c64d61","getPortfolioRisk(address)":"22c797ca","getSystemRisk()":"b195b43e","isCircuitBreakerActive(bytes32)":"37dbda3e","lastRiskCheck(bytes32)":"48c5e1cc","owner()":"8da5cb5b","paused()":"5c975abb","poolRiskParams(bytes32)":"0654f91e","portfolioRisk(address)":"3343a2ac","renounceOwnership()":"715018a6","resetCircuitBreaker(bytes32)":"e6271b55","riskManagers(address)":"e83937cc","riskOracles(address)":"4806faaa","setPoolRiskParameters(bytes32,uint256,uint256,uint256)":"f5ec9f9b","setupCircuitBreaker(bytes32,uint256,uint256)":"22806c0f","systemRisk()":"14a75181","transferOwnership(address)":"f2fde38b","updatePortfolioRisk(address,uint256,uint256)":"4b5e132c","updateSystemRisk()":"8e99c815"},"id":7}